(ns demo.messages)

 (def logout-msg
  "8=FIX.4.4|9=118|35=5|49=CSERVER|56=demo.tradeviewmarkets.3152195|34=1|50=QUOTE|57=QUOTE|52=20250224-21:13:01.525|58=RET_NO_SUCH_LOGIN|10=172|")

(def quote-subscribe-msg
  "8=FIX.4.4|9=146|35=V|49=demo.tradeviewmarkets.3152195|56=CSERVER|34=6|50=QUOTE|57=QUOTE|52=20250224-21:13:01|262=6|263=1|264=1|265=1|267=2|269=0|269=1|146=1|55=4|10=080|")
 

(def new-order-msg "8=FIX.4.2|9=33|35=D|55=NESNz|54=1|38=100|44=1.0|10=131|")