
OUT: 8=FIX.4.4|9=153|35=A|49=cServer|56=demo.tradeviewmarkets.3193299|34=4|50=QUOTE|57=QUOTE|52=20250226-03:55:53.128|98=:none-other|108=60|141=Y|553=3193299|554=2025Florian|10=167|
IN: 8=FIX.4.4|9=165|35=5|34=1|49=demo.tradeviewmarkets.3193299|50=QUOTE|52=20250226-03:55:53.243|56=cServer|57=QUOTE|58=Invalid Logon message: Incorrect data format for value, field=98|10=038|
OUT: 8=FIX.4.4|9=143|35=A|49=cServer|56=demo.tradeviewmarkets.3193299|34=2|50=QUOTE|57=QUOTE|52=20250226-04:03:49.981|98=0|108=60|141=Y|553=3193299|554=2025Florian|10=161|
IN: 8=FIX.4.4|9=126|35=5|34=1|49=demo.tradeviewmarkets.3193299|50=QUOTE|52=20250226-04:03:50.084|56=cServer|57=QUOTE|58=SenderCompID is not valid|10=068|


OUT: 8=FIX.4.4|9=143|35=A|
49=demo.tradeviewmarkets.3193299|56=cServer|
34=2|
50=QUOTE|57=QUOTE|
52=20250226-04:06:26.521|98=0|108=60|141=Y|
553=3193299|554=2025Florian|10=149|

8=FIX.4.4|9=139|35=A|
49=demo.tradeviewmarkets.3193299|56=CSERVER
|34=1|
50=QUOTE|57=QUOTE|
52=20250226-00:02:26|98=0|108=60|141=Y|
553=3193299|554=2025Florian|10=011"



IN: 8=FIX.4.4|9=117|35=5|34=1|
49=cServer|50=QUOTE|
52=20250226-04:06:26.687|
56=demo.tradeviewmarkets.3193299|57=QUOTE|
58=RET_INVALID_DATA|
10=003|
CONNECTING
OUT: 8=FIX.4.4|9=143|35=A|49=demo.tradeviewmarkets.3193299|56=cServer|34=2|50=QUOTE|57=QUOTE|52=20250226-04:14:29.983|98=0|108=60|141=Y|553=3193299|554=2025Florian|10=163|
IN: 8=FIX.4.4|9=117|35=5|34=1|49=cServer|50=QUOTE|52=20250226-04:14:30.144|56=demo.tradeviewmarkets.3193299|57=QUOTE|58=RET_INVALID_DATA|10=241|
CONNECTING
OUT: 8=FIX.4.4|9=143|35=A|49=demo.tradeviewmarkets.3193299|56=cServer|34=1|50=QUOTE|57=QUOTE|52=20250226-04:16:43.846|98=0|108=60|141=Y|553=3193299|554=2025Florian|10=158|
IN: 8=FIX.4.4|9=117|35=5|34=1|49=cServer|50=QUOTE|52=20250226-04:16:44.021|56=demo.tradeviewmarkets.3193299|
57=QUOTE|58=RET_INVALID_DATA|10=242|
CONNECTING

CONNECTING


MY 
8=FIX.4.4|9=143|35=A|49=demo.tradeviewmarkets.3193299|56=CSERVER|34=1|
50=QUOTE|57=QUOTE|52=20250226-04:41:02.868|
98=0|108=60|141=Y|553=3193299|554=2025Florian|10=219|

Fields that must be in a fixed order:

    BeginString (8) – Always the first field.
    BodyLength (9) – Always second, since it defines the length of the message.
    MsgType (35) – Must appear immediately after BodyLength.
    CheckSum (10) – Always the last field.


8=FIX.4.4|9=143|35=A|34=1|49=demo.tradeviewmarkets.3193299|56=CSERVER|
50=QUOTE|57=QUOTE|52=20250226-04:41:02.868|
98=0|108=60|141=Y|553=3193299|554=2025Florian|10=219|

8=FIX.4.1|9=61|35=A|34=1|49=EXEC|52=20121105-23:24:06|56=BANZAI|98=0|108=30|10=003|

SPEC
8=FIX.4.4|9=126|35=A|49=live.theBroker.12345|56=CSERVER|34=1|
52=20170117-08:03:04|57=TRADE|50=any_string|
98=0|108=30|141=Y|553=12345|554=passw0rd!|10=131|

OLD
[:sender-comp-id sender  :target-comp-id target
     :sender-sub-id sender-sub
     :target-sub-id target-sub
     :msg-seq-num (swap! (:out-seq-num session) inc)
     :sending-time (timestamp)]

[:heartbeat-interval heartbeat-interval
                                :reset-seq-num reset-seq-num
                                :encrypt-method :none
                                :username (:username session)
                                :password (:password session)]



IN: 8=FIX.4.4|9=117|35=5|34=1|

49=CSERVER|50=QUOTE|52=20250226-04:41:03.047|
56=demo.tradeviewmarkets.3193299|57=QUOTE
|58=RET_INVALID_DATA|10=051|
OUT: 8=FIX.4.4|9=153|35=V|49=demo.tradeviewmarkets.3193299|56=CSERVER|34=2|50=QUOTE|57=QUOTE|52=20250226-04:41:05.048|262=1455|263=1|264=1|265=1|267=2|269=0|269=1|146=1|55=4|10=191|
CONNECTING
OUT: 8=FIX.4.4|9=153|35=V|49=demo.tradeviewmarkets.3193299|56=CSERVER|34=3|50=QUOTE|57=QUOTE|52=20250226-04:41:32.327|262=1455|263=1|264=1|265=1|267=2|269=0|269=1|146=1|55=4|10=192|
OUT: 8=FIX.4.4|9=143|35=A|49=demo.tradeviewmarkets.3193299|56=CSERVER|34=4|50=QUOTE|57=QUOTE|52=20250226-04:41:54.109|98=0|108=60|141=Y|553=3193299|554=2025Florian|10=217|



Response (Success)

8=FIX.4.4|9=106|35=A|34=1|49=CSERVER|50=TRADE|
52=20170117-08:03:04.509|56=live.theBroker.12345|57=any_string|98=0|108=30|141=Y|10=066|

Response (Failed)

8=FIX.4.4|9=109|35=5|34=1|49=CSERVER|50=TRADE|
52=20170117-08:03:04.509|56=live.theBroker.12345|58=InternalError: RET_INVALID_DATA|10=033|

CONNECTING
OUT: 8=FIX.4.4|9=143|35=A|49=demo.tradeviewmarkets.3193299|56=CSERVER|34=1|50=QUOTE|57=QUOTE|52=20250226-05:41:55.090|98=0|108=60|141=Y|553=3193299|554=2025Florian|10=215|
IN: 8=FIX.4.4|9=117|35=5|34=1|49=CSERVER|50=QUOTE|52=20250226-05:41:55.317|56=demo.tradeviewmarkets.3193299|57=QUOTE|58=RET_INVALID_DATA|10=059|
CONNECTING
OUT: 8=FIX.4.4|9=143|35=A|49=demo.tradeviewmarkets.3193299|56=CSERVER|34=1|50=QUOTE|57=QUOTE|52=20250226-05:42:23.190|98=0|108=60|141=Y|553=3193299|554=2025Florian|10=212|
OUT: 8=FIX.4.4|9=153|35=V|49=demo.tradeviewmarkets.3193299|56=CSERVER|34=2|50=QUOTE|57=QUOTE|52=20250226-05:42:23.202|262=1455|263=1|264=1|265=1|267=2|269=0|269=1|146=1|55=4|10=185|
IN: 8=FIX.4.4|9=117|35=5|34=1|49=CSERVER|50=QUOTE|52=20250226-05:42:23.419|56=demo.tradeviewmarkets.3193299|57=QUOTE|58=RET_INVALID_DATA|10=058|
CONNECTING
OUT: 8=FIX.4.4|9=146|35=A|49=demo.tradeviewmarkets.3193299|56=CSERVER|34=1|50=QUOTE|57=QUOTE|52=20250226-05:43:17.737|98=0|108=60|141=Y|553=3193299|554=2025Florian222|10=120|
IN: 8=FIX.4.4|9=117|35=5|34=1|49=CSERVER|50=QUOTE|52=20250226-05:43:17.975|56=demo.tradeviewmarkets.3193299|57=QUOTE|58=RET_INVALID_DATA|10=069|
CONNECTING
OUT: 8=FIX.4.4|9=145|35=A|49=demo.tradeviewmarkets.3193299|56=CSERVER|34=1|50=QUOTE|57=QUOTE|52=20250226-05:43:42.206|98=0|108=60|141=Y|553=3193299xx|554=2025Florian|10=198|
IN: 8=FIX.4.4|9=153|35=5|34=1|49=CSERVER|50=QUOTE|52=20250226-05:43:42.392|56=demo.tradeviewmarkets.3193299|57=QUOTE|58=Could not parse Username. Expecting a integer value.|10=100|
CONNECTING
OUT: 8=FIX.4.4|9=144|35=A|49=demo.tradeviewmarkets.3193299|56=CSERVER|34=1|50=QUOTE|57=QUOTE|52=20250226-05:44:08.841|98=0|108=60|141=Y|553=31932990|554=2025Florian|10=013|
IN: 8=FIX.4.4|9=137|35=5|34=1|49=CSERVER|50=QUOTE|52=20250226-05:44:09.024|56=demo.tradeviewmarkets.3193299|57=QUOTE|58=Username does not match SenderCompID|10=182|
CONNECTING
OUT: 8=FIX.4.4|9=143|35=A|49=demo.tradeviewmarkets.3193299|56=CSERVER|34=1|50=QUOTE|57=QUOTE|52=20250226-05:47:01.596|98=0|108=60|141=Y|553=3193299|554=2025Florian|10=223|
IN: 8=FIX.4.4|9=117|35=5|34=1|49=CSERVER|50=QUOTE|52=20250226-05:47:01.832|56=demo.tradeviewmarkets.3193299|57=QUOTE|58=RET_INVALID_DATA|10=058|
CONNECTING
OUT: 8=FIX.4.4|9=146|35=A|49=demo.tradeviewmarkets.3193299|56=CSERVER|34=1|50=QUOTE|57=QUOTE|52=20250226-05:47:32.412|98=0|108=60|141=Y|553=3193299|554=2025FlorianPPP|10=201|
IN: 8=FIX.4.4|9=117|35=5|34=1|49=CSERVER|50=QUOTE|52=20250226-05:47:32.648|56=demo.tradeviewmarkets.3193299|57=QUOTE|58=RET_INVALID_DATA|10=067|
CONNECTING
OUT: 8=FIX.4.4|9=145|35=A|49=demo.tradeviewmarkets.3193299|56=CSERVER|34=1|50=QUOTE|57=QUOTE|52=20250226-05:47:54.654|98=0|108=60|141=Y|553=319329900|554=2025Florian|10=068|
IN: 8=FIX.4.4|9=137|35=5|34=1|49=CSERVER|50=QUOTE|52=20250226-05:47:54.835|56=demo.tradeviewmarkets.3193299|57=QUOTE|58=Username does not match SenderCompID|10=195|
CONNECTING
OUT: 8=FIX.4.4|9=147|35=A|49=demo.tradeviewmarkets.319329900|56=CSERVER|34=1|50=QUOTE|57=QUOTE|52=20250226-05:48:19.791|98=0|108=60|141=Y|553=319329900|554=2025Florian|10=170|
IN: 8=FIX.4.4|9=120|35=5|34=1|49=CSERVER|50=QUOTE|52=20250226-05:48:20.025|56=demo.tradeviewmarkets.319329900|57=QUOTE|58=RET_NO_SUCH_LOGIN|10=023|
CONNECTING
OUT: 8=FIX.4.4|9=143|35=A|49=demo.tradeviewmarkets.3193299|56=CSERVER|34=1|50=QUOTE|57=QUOTE|52=20250226-05:48:57.606|98=0|108=60|141=Y|553=3193299|554=2025Florian|10=227|
IN: 8=FIX.4.4|9=117|35=5|34=1|49=CSERVER|50=QUOTE|52=20250226-05:48:57.847|56=demo.tradeviewmarkets.3193299|57=QUOTE|58=RET_INVALID_DATA|10=076|


CONNECTING
OUT: 8=FIX.4.4|9=139|35=A|49=demo.tradeviewmarkets.3193299|56=CSERVER|34=1|50=QUOTE|57=QUOTE|52=20250226-05:52:27|98=0|108=60|141=Y|553=3193299|554=2025Florian|10=022|
IN:  8=FIX.4.4|9=117|35=5|34=1|49=CSERVER|50=QUOTE|52=20250226-05:52:27.887|56=demo.tradeviewmarkets.3193299|57=QUOTE|58=RET_INVALID_DATA|10=072|
CONNECTING
OUT: 8=FIX.4.4|9=139|35=A|49=demo.tradeviewmarkets.3193335|56=cServer|34=1|50=QUOTE|57=QUOTE|52=20250226-07:22:33|98=0|108=60|141=Y|553=3193335|554=florian2025|10=224|
IN: 8=FIX.4.4|9=117|35=5|34=1|49=cServer|50=QUOTE|52=20250226-07:22:33.719|56=demo.tradeviewmarkets.3193335|57=QUOTE|58=RET_INVALID_DATA|10=245|
CONNECTING
OUT: 8=FIX.4.4|9=139|35=A|49=demo.tradeviewmarkets.3193335|56=cServer|34=1|50=QUOTE|57=QUOTE|52=20250226-07:30:30|98=0|108=60|141=Y|553=3193335|554=florian2025|10=220|
IN: 8=FIX.4.4|9=117|35=5|34=1|49=cServer|50=QUOTE|52=20250226-07:30:30.519|56=demo.tradeviewmarkets.3193335|57=QUOTE|58=RET_INVALID_DATA|10=239|
CONNECTING
OUT: 8=FIX.4.4|9=137|35=A|49=demo.tradeviewmarkets.3193335|56=cServer|34=1|50=QUOTE|57=QUOTE|52=20250226-07:34:18|98=0|108=60|141=Y|553=3193335|554=123456789|10=013|
IN: 8=FIX.4.4|9=115|35=A|34=1|49=cServer|50=QUOTE|52=20250226-07:34:18.849|56=demo.tradeviewmarkets.3193335|57=QUOTE|98=0|108=60|141=Y|10=221|
CONNECTING
OUT: 8=FIX.4.4|9=137|35=A|49=demo.tradeviewmarkets.3193335|56=cServer|34=1|50=QUOTE|57=QUOTE|52=20250226-07:34:42|98=0|108=60|141=Y|553=3193335|554=123456789|10=010|
OUT: 8=FIX.4.4|9=149|35=V|49=demo.tradeviewmarkets.3193335|56=cServer|34=2|50=QUOTE|57=QUOTE|52=20250226-07:34:42|262=1455|263=1|264=1|265=1|267=2|269=0|269=1|146=1|55=4|10=183|
CONNECTING
OUT: 8=FIX.4.4|9=137|35=A|49=demo.tradeviewmarkets.3193335|56=cServer|34=1|50=QUOTE|57=QUOTE|52=20250226-07:34:57|98=0|108=60|141=Y|553=3193335|554=123456789|10=016|
OUT: 8=FIX.4.4|9=149|35=V|49=demo.tradeviewmarkets.3193335|56=cServer|34=2|50=QUOTE|57=QUOTE|52=20250226-07:34:57|262=1455|263=1|264=1|265=1|267=2|269=0|269=1|146=1|55=4|10=189|
IN: 8=FIX.4.4|9=97|35=0|34=2|49=cServer|50=QUOTE|52=20250226-07:35:19.425|56=demo.tradeviewmarkets.3193335|57=QUOTE|10=085|
IN: 8=FIX.4.4|9=106|35=1|34=3|49=cServer|50=QUOTE|52=20250226-07:35:49.425|56=demo.tradeviewmarkets.3193335|57=QUOTE|112=TEST|10=147|
CONNECTING
OUT: 8=FIX.4.4|9=137|35=A|49=demo.tradeviewmarkets.3193335|56=cServer|34=1|50=QUOTE|57=QUOTE|52=20250226-07:45:32|98=0|108=60|141=Y|553=3193335|554=123456789|10=011|
OUT: 8=FIX.4.4|9=107|35=x|49=demo.tradeviewmarkets.3193335|56=cServer|34=2|50=QUOTE|57=QUOTE|52=20250226-07:45:32|320=125|559=0|10=116|
IN: 8=FIX.4.4|9=115|35=A|34=1|49=cServer|50=QUOTE|52=20250226-07:45:32.605|56=demo.tradeviewmarkets.3193335|57=QUOTE|98=0|108=60|141=Y|10=209|8=FIX.4.4|9=2932|35=y|34=2|49=cServer|50=QUOTE|52=20250226-07:45:32.605|56=demo.tradeviewmarkets.3193335|57=QUOTE|320=125|322=responce:125|560=0|146=107|55=1|1007=EURUSD|1008=5|55=2|1007=GBPUSD|1008=5|55=3|1007=EURJPY|1008=3|55=4|1007=USDJPY|1008=3|55=5|1007=AUDUSD|1008=5|55=6|1007=USDCHF|1008=5|55=7|1007=GBPJPY|1008=3|55=8|1007=USDCAD|1008=5|55=9|1007=EURGBP|1008=5|55=10|1007=EURCHF|1008=5|55=11|1007=AUDJPY|1008=3|55=12|1007=NZDUSD|1008=5|55=13|1007=CHFJPY|1008=3|55=14|1007=EURAUD|1008=5|55=15|1007=CADJPY|1008=3|55=16|1007=GBPAUD|1008=5|55=17|1007=EURCAD|1008=5|55=18|1007=AUDCAD|1008=5|55=19|1007=GBPCAD|1008=5|55=20|1007=AUDNZD|1008=5|55=21|1007=NZDJPY|1008=3|55=22|1007=USDNOK|1008=4|55=23|1007=AUDCHF|1008=5|55=24|1007=USDMXN|1008=4|55=25|1007=GBPNZD|1008=5|55=26|1007=EURNZD|1008=5|55=27|1007=CADCHF|1008=5|55=28|1007=USDSGD|1008=5|55=29|1007=USDSEK|1008=4|55=30|1007=NZDCAD|1008=5|55=31|1007=EURSEK|1008=4|55=32|1007=GBPSGD|1008=4|55=33|1007=EURNOK|1008=4|55=34|1007=EURHUF|1008=2|55=35|1007=USDPLN|1008=4|55=36|1007=USDDKK|1008=4|55=37|1007=GBPNOK|1008=4|55=38|1007=AUDDKK|1008=4|55=39|1007=NZDCHF|1008=5|55=40|1007=GBPCHF|1008=5|55=41|1007=XAUUSD|1008=2|55=42|1007=XAGUSD|1008=3|55=43|1007=USDTRY|1008=5|55=44|1007=NGAS|1008=3|55=45|1007=USDZAR|1008=5|55=46|1007=BTC/USD|1008=2|55=47|1007=ETH/USD|1008=2|55=48|1007=LTC/USD|1008=2|55=49|1007=XBN/USD|1008=2|55=50|1007=XRP/USD|1008=5|55=51|1007=EUR/CHF|1008=5|55=52|1007=AUD/JPY|1008=3|55=53|1007=NZD/USD|1008=5|55=54|1007=CHF/JPY|1008=3|55=55|1007=EUR/AUD|1008=5|55=56|1007=CAD/JPY|1008=3|55=57|1007=GBP/AUD|1008=5|55=58|1007=EUR/CAD|1008=5|55=59|1007=GBP/CAD|1008=5|55=60|1007=AUD/NZD|1008=5|55=61|1007=NZD/JPY|1008=3|55=62|1007=AUD/USD|1008=5|55=63|1007=AUD/CHF|1008=5|55=64|1007=GBP/NZD|1008=5|55=65|1007=EUR/NZD|1008=5|55=66|1007=USD/SEK|1008=5|55=67|1007=NZD/CAD|1008=5|55=68|1007=GBP/NOK|1008=5|55=69|1007=AUD/DKK|1008=4|55=70|1007=NZD/CHF|
IN: 1008=5|55=71|1007=GBP/CHF|1008=5|55=72|1007=XAU/USD|1008=2|55=73|1007=EUR/JPY|1008=3|55=74|1007=EUR/GBP|1008=5|55=75|1007=CAD/CHF|1008=5|55=76|1007=USD/CHF|1008=5|55=77|1007=AUD/CAD|1008=5|55=78|1007=USD/SGD|1008=5|55=79|1007=GBP/USD|1008=5|55=80|1007=EUR/SEK|1008=5|55=81|1007=EUR/NOK|1008=5|55=82|1007=EUR/HUF|1008=3|55=83|1007=USD/JPY|1008=3|55=84|1007=GBP/JPY|1008=3|55=85|1007=USD/PLN|1008=5|55=86|1007=USD/DKK|1008=5|55=87|1007=XAG/USD|1008=3|55=88|1007=GBP/SGD|1008=5|55=89|1007=EUR/USD|1008=5|55=90|1007=USD/TRY|1008=5|55=91|1007=USD/CAD|1008=5|55=92|1007=USD/NOK|1008=5|55=93|1007=USD/ZAR|1008=5|55=94|1007=USD/MXN|1008=4|55=95|1007=Australia 200|1008=2|55=96|1007=Europe 50|1008=1|55=97|1007=France 40|1008=1|55=98|1007=Germany 30 (Mini)|1008=1|55=99|1007=Hong Kong 50|1008=2|55=100|1007=Japan 225|1008=0|55=101|1007=Spain 35|1008=1|55=102|1007=UK 100|1008=1|55=103|1007=US SPX 500 (Mini)|1008=1|55=104|1007=US Tech 100 (Mini)|1008=1|55=105|1007=Wall Street 30 (Mini)|1008=0|55=106|1007=XTI/USD|1008=2|55=107|1007=XBR/USD|1008=3|10=253|
; a very big messge that cannot be parsed in one go.
