
OUT: 8=FIX.4.4|9=153|35=A|49=cServer|56=demo.tradeviewmarkets.3193299|34=4|50=QUOTE|57=QUOTE|52=20250226-03:55:53.128|98=:none-other|108=60|141=Y|553=3193299|554=2025Florian|10=167|
IN: 8=FIX.4.4|9=165|35=5|34=1|49=demo.tradeviewmarkets.3193299|50=QUOTE|52=20250226-03:55:53.243|56=cServer|57=QUOTE|58=Invalid Logon message: Incorrect data format for value, field=98|10=038|
OUT: 8=FIX.4.4|9=143|35=A|49=cServer|56=demo.tradeviewmarkets.3193299|34=2|50=QUOTE|57=QUOTE|52=20250226-04:03:49.981|98=0|108=60|141=Y|553=3193299|554=2025Florian|10=161|
IN: 8=FIX.4.4|9=126|35=5|34=1|49=demo.tradeviewmarkets.3193299|50=QUOTE|52=20250226-04:03:50.084|56=cServer|57=QUOTE|58=SenderCompID is not valid|10=068|


OUT: 8=FIX.4.4|9=143|35=A|
49=demo.tradeviewmarkets.3193299|56=cServer|
34=2|
50=QUOTE|57=QUOTE|
52=20250226-04:06:26.521|98=0|108=60|141=Y|
553=3193299|554=2025Florian|10=149|

8=FIX.4.4|9=139|35=A|
49=demo.tradeviewmarkets.3193299|56=CSERVER
|34=1|
50=QUOTE|57=QUOTE|
52=20250226-00:02:26|98=0|108=60|141=Y|
553=3193299|554=2025Florian|10=011"



IN: 8=FIX.4.4|9=117|35=5|34=1|
49=cServer|50=QUOTE|
52=20250226-04:06:26.687|
56=demo.tradeviewmarkets.3193299|57=QUOTE|
58=RET_INVALID_DATA|
10=003|
CONNECTING
OUT: 8=FIX.4.4|9=143|35=A|49=demo.tradeviewmarkets.3193299|56=cServer|34=2|50=QUOTE|57=QUOTE|52=20250226-04:14:29.983|98=0|108=60|141=Y|553=3193299|554=2025Florian|10=163|
IN: 8=FIX.4.4|9=117|35=5|34=1|49=cServer|50=QUOTE|52=20250226-04:14:30.144|56=demo.tradeviewmarkets.3193299|57=QUOTE|58=RET_INVALID_DATA|10=241|
CONNECTING
OUT: 8=FIX.4.4|9=143|35=A|49=demo.tradeviewmarkets.3193299|56=cServer|34=1|50=QUOTE|57=QUOTE|52=20250226-04:16:43.846|98=0|108=60|141=Y|553=3193299|554=2025Florian|10=158|
IN: 8=FIX.4.4|9=117|35=5|34=1|49=cServer|50=QUOTE|52=20250226-04:16:44.021|56=demo.tradeviewmarkets.3193299|
57=QUOTE|58=RET_INVALID_DATA|10=242|
CONNECTING

CONNECTING


MY 
8=FIX.4.4|9=143|35=A|49=demo.tradeviewmarkets.3193299|56=CSERVER|34=1|
50=QUOTE|57=QUOTE|52=20250226-04:41:02.868|
98=0|108=60|141=Y|553=3193299|554=2025Florian|10=219|

Fields that must be in a fixed order:

    BeginString (8) – Always the first field.
    BodyLength (9) – Always second, since it defines the length of the message.
    MsgType (35) – Must appear immediately after BodyLength.
    CheckSum (10) – Always the last field.


8=FIX.4.4|9=143|35=A|34=1|49=demo.tradeviewmarkets.3193299|56=CSERVER|
50=QUOTE|57=QUOTE|52=20250226-04:41:02.868|
98=0|108=60|141=Y|553=3193299|554=2025Florian|10=219|

8=FIX.4.1|9=61|35=A|34=1|49=EXEC|52=20121105-23:24:06|56=BANZAI|98=0|108=30|10=003|

SPEC
8=FIX.4.4|9=126|35=A|49=live.theBroker.12345|56=CSERVER|34=1|
52=20170117-08:03:04|57=TRADE|50=any_string|
98=0|108=30|141=Y|553=12345|554=passw0rd!|10=131|

OLD
[:sender-comp-id sender  :target-comp-id target
     :sender-sub-id sender-sub
     :target-sub-id target-sub
     :msg-seq-num (swap! (:out-seq-num session) inc)
     :sending-time (timestamp)]

[:heartbeat-interval heartbeat-interval
                                :reset-seq-num reset-seq-num
                                :encrypt-method :none
                                :username (:username session)
                                :password (:password session)]



IN: 8=FIX.4.4|9=117|35=5|34=1|

49=CSERVER|50=QUOTE|52=20250226-04:41:03.047|
56=demo.tradeviewmarkets.3193299|57=QUOTE
|58=RET_INVALID_DATA|10=051|
OUT: 8=FIX.4.4|9=153|35=V|49=demo.tradeviewmarkets.3193299|56=CSERVER|34=2|50=QUOTE|57=QUOTE|52=20250226-04:41:05.048|262=1455|263=1|264=1|265=1|267=2|269=0|269=1|146=1|55=4|10=191|
CONNECTING
OUT: 8=FIX.4.4|9=153|35=V|49=demo.tradeviewmarkets.3193299|56=CSERVER|34=3|50=QUOTE|57=QUOTE|52=20250226-04:41:32.327|262=1455|263=1|264=1|265=1|267=2|269=0|269=1|146=1|55=4|10=192|
OUT: 8=FIX.4.4|9=143|35=A|49=demo.tradeviewmarkets.3193299|56=CSERVER|34=4|50=QUOTE|57=QUOTE|52=20250226-04:41:54.109|98=0|108=60|141=Y|553=3193299|554=2025Florian|10=217|



Response (Success)

8=FIX.4.4|9=106|35=A|34=1|49=CSERVER|50=TRADE|
52=20170117-08:03:04.509|56=live.theBroker.12345|57=any_string|98=0|108=30|141=Y|10=066|

Response (Failed)

8=FIX.4.4|9=109|35=5|34=1|49=CSERVER|50=TRADE|
52=20170117-08:03:04.509|56=live.theBroker.12345|58=InternalError: RET_INVALID_DATA|10=033|

CONNECTING
OUT: 8=FIX.4.4|9=143|35=A|49=demo.tradeviewmarkets.3193299|56=CSERVER|34=1|50=QUOTE|57=QUOTE|52=20250226-05:41:55.090|98=0|108=60|141=Y|553=3193299|554=2025Florian|10=215|
IN: 8=FIX.4.4|9=117|35=5|34=1|49=CSERVER|50=QUOTE|52=20250226-05:41:55.317|56=demo.tradeviewmarkets.3193299|57=QUOTE|58=RET_INVALID_DATA|10=059|
CONNECTING
OUT: 8=FIX.4.4|9=143|35=A|49=demo.tradeviewmarkets.3193299|56=CSERVER|34=1|50=QUOTE|57=QUOTE|52=20250226-05:42:23.190|98=0|108=60|141=Y|553=3193299|554=2025Florian|10=212|
OUT: 8=FIX.4.4|9=153|35=V|49=demo.tradeviewmarkets.3193299|56=CSERVER|34=2|50=QUOTE|57=QUOTE|52=20250226-05:42:23.202|262=1455|263=1|264=1|265=1|267=2|269=0|269=1|146=1|55=4|10=185|
IN: 8=FIX.4.4|9=117|35=5|34=1|49=CSERVER|50=QUOTE|52=20250226-05:42:23.419|56=demo.tradeviewmarkets.3193299|57=QUOTE|58=RET_INVALID_DATA|10=058|
CONNECTING
OUT: 8=FIX.4.4|9=146|35=A|49=demo.tradeviewmarkets.3193299|56=CSERVER|34=1|50=QUOTE|57=QUOTE|52=20250226-05:43:17.737|98=0|108=60|141=Y|553=3193299|554=2025Florian222|10=120|
IN: 8=FIX.4.4|9=117|35=5|34=1|49=CSERVER|50=QUOTE|52=20250226-05:43:17.975|56=demo.tradeviewmarkets.3193299|57=QUOTE|58=RET_INVALID_DATA|10=069|
CONNECTING
OUT: 8=FIX.4.4|9=145|35=A|49=demo.tradeviewmarkets.3193299|56=CSERVER|34=1|50=QUOTE|57=QUOTE|52=20250226-05:43:42.206|98=0|108=60|141=Y|553=3193299xx|554=2025Florian|10=198|
IN: 8=FIX.4.4|9=153|35=5|34=1|49=CSERVER|50=QUOTE|52=20250226-05:43:42.392|56=demo.tradeviewmarkets.3193299|57=QUOTE|58=Could not parse Username. Expecting a integer value.|10=100|
CONNECTING
OUT: 8=FIX.4.4|9=144|35=A|49=demo.tradeviewmarkets.3193299|56=CSERVER|34=1|50=QUOTE|57=QUOTE|52=20250226-05:44:08.841|98=0|108=60|141=Y|553=31932990|554=2025Florian|10=013|
IN: 8=FIX.4.4|9=137|35=5|34=1|49=CSERVER|50=QUOTE|52=20250226-05:44:09.024|56=demo.tradeviewmarkets.3193299|57=QUOTE|58=Username does not match SenderCompID|10=182|
CONNECTING
OUT: 8=FIX.4.4|9=143|35=A|49=demo.tradeviewmarkets.3193299|56=CSERVER|34=1|50=QUOTE|57=QUOTE|52=20250226-05:47:01.596|98=0|108=60|141=Y|553=3193299|554=2025Florian|10=223|
IN: 8=FIX.4.4|9=117|35=5|34=1|49=CSERVER|50=QUOTE|52=20250226-05:47:01.832|56=demo.tradeviewmarkets.3193299|57=QUOTE|58=RET_INVALID_DATA|10=058|
CONNECTING
OUT: 8=FIX.4.4|9=146|35=A|49=demo.tradeviewmarkets.3193299|56=CSERVER|34=1|50=QUOTE|57=QUOTE|52=20250226-05:47:32.412|98=0|108=60|141=Y|553=3193299|554=2025FlorianPPP|10=201|
IN: 8=FIX.4.4|9=117|35=5|34=1|49=CSERVER|50=QUOTE|52=20250226-05:47:32.648|56=demo.tradeviewmarkets.3193299|57=QUOTE|58=RET_INVALID_DATA|10=067|
CONNECTING
OUT: 8=FIX.4.4|9=145|35=A|49=demo.tradeviewmarkets.3193299|56=CSERVER|34=1|50=QUOTE|57=QUOTE|52=20250226-05:47:54.654|98=0|108=60|141=Y|553=319329900|554=2025Florian|10=068|
IN: 8=FIX.4.4|9=137|35=5|34=1|49=CSERVER|50=QUOTE|52=20250226-05:47:54.835|56=demo.tradeviewmarkets.3193299|57=QUOTE|58=Username does not match SenderCompID|10=195|
CONNECTING
OUT: 8=FIX.4.4|9=147|35=A|49=demo.tradeviewmarkets.319329900|56=CSERVER|34=1|50=QUOTE|57=QUOTE|52=20250226-05:48:19.791|98=0|108=60|141=Y|553=319329900|554=2025Florian|10=170|
IN: 8=FIX.4.4|9=120|35=5|34=1|49=CSERVER|50=QUOTE|52=20250226-05:48:20.025|56=demo.tradeviewmarkets.319329900|57=QUOTE|58=RET_NO_SUCH_LOGIN|10=023|
CONNECTING
OUT: 8=FIX.4.4|9=143|35=A|49=demo.tradeviewmarkets.3193299|56=CSERVER|34=1|50=QUOTE|57=QUOTE|52=20250226-05:48:57.606|98=0|108=60|141=Y|553=3193299|554=2025Florian|10=227|
IN: 8=FIX.4.4|9=117|35=5|34=1|49=CSERVER|50=QUOTE|52=20250226-05:48:57.847|56=demo.tradeviewmarkets.3193299|57=QUOTE|58=RET_INVALID_DATA|10=076|


CONNECTING
OUT: 8=FIX.4.4|9=139|35=A|49=demo.tradeviewmarkets.3193299|56=CSERVER|34=1|50=QUOTE|57=QUOTE|52=20250226-05:52:27|98=0|108=60|141=Y|553=3193299|554=2025Florian|10=022|
IN:  8=FIX.4.4|9=117|35=5|34=1|49=CSERVER|50=QUOTE|52=20250226-05:52:27.887|56=demo.tradeviewmarkets.3193299|57=QUOTE|58=RET_INVALID_DATA|10=072|
CONNECTING
OUT: 8=FIX.4.4|9=139|35=A|49=demo.tradeviewmarkets.3193335|56=cServer|34=1|50=QUOTE|57=QUOTE|52=20250226-07:22:33|98=0|108=60|141=Y|553=3193335|554=florian2025|10=224|
IN: 8=FIX.4.4|9=117|35=5|34=1|49=cServer|50=QUOTE|52=20250226-07:22:33.719|56=demo.tradeviewmarkets.3193335|57=QUOTE|58=RET_INVALID_DATA|10=245|
CONNECTING
OUT: 8=FIX.4.4|9=139|35=A|49=demo.tradeviewmarkets.3193335|56=cServer|34=1|50=QUOTE|57=QUOTE|52=20250226-07:30:30|98=0|108=60|141=Y|553=3193335|554=florian2025|10=220|
IN: 8=FIX.4.4|9=117|35=5|34=1|49=cServer|50=QUOTE|52=20250226-07:30:30.519|56=demo.tradeviewmarkets.3193335|57=QUOTE|58=RET_INVALID_DATA|10=239|
CONNECTING
OUT: 8=FIX.4.4|9=137|35=A|49=demo.tradeviewmarkets.3193335|56=cServer|34=1|50=QUOTE|57=QUOTE|52=20250226-07:34:18|98=0|108=60|141=Y|553=3193335|554=123456789|10=013|
IN: 8=FIX.4.4|9=115|35=A|34=1|49=cServer|50=QUOTE|52=20250226-07:34:18.849|56=demo.tradeviewmarkets.3193335|57=QUOTE|98=0|108=60|141=Y|10=221|
CONNECTING
OUT: 8=FIX.4.4|9=137|35=A|49=demo.tradeviewmarkets.3193335|56=cServer|34=1|50=QUOTE|57=QUOTE|52=20250226-07:34:42|98=0|108=60|141=Y|553=3193335|554=123456789|10=010|
OUT: 8=FIX.4.4|9=149|35=V|49=demo.tradeviewmarkets.3193335|56=cServer|34=2|50=QUOTE|57=QUOTE|52=20250226-07:34:42|262=1455|263=1|264=1|265=1|267=2|269=0|269=1|146=1|55=4|10=183|
CONNECTING
OUT: 8=FIX.4.4|9=137|35=A|49=demo.tradeviewmarkets.3193335|56=cServer|34=1|50=QUOTE|57=QUOTE|52=20250226-07:34:57|98=0|108=60|141=Y|553=3193335|554=123456789|10=016|
OUT: 8=FIX.4.4|9=149|35=V|49=demo.tradeviewmarkets.3193335|56=cServer|34=2|50=QUOTE|57=QUOTE|52=20250226-07:34:57|262=1455|263=1|264=1|265=1|267=2|269=0|269=1|146=1|55=4|10=189|
IN: 8=FIX.4.4|9=97|35=0|34=2|49=cServer|50=QUOTE|52=20250226-07:35:19.425|56=demo.tradeviewmarkets.3193335|57=QUOTE|10=085|
IN: 8=FIX.4.4|9=106|35=1|34=3|49=cServer|50=QUOTE|52=20250226-07:35:49.425|56=demo.tradeviewmarkets.3193335|57=QUOTE|112=TEST|10=147|
CONNECTING
OUT: 8=FIX.4.4|9=137|35=A|49=demo.tradeviewmarkets.3193335|56=cServer|34=1|50=QUOTE|57=QUOTE|52=20250226-07:45:32|98=0|108=60|141=Y|553=3193335|554=123456789|10=011|
OUT: 8=FIX.4.4|9=107|35=x|49=demo.tradeviewmarkets.3193335|56=cServer|34=2|50=QUOTE|57=QUOTE|52=20250226-07:45:32|320=125|559=0|10=116|
IN: 8=FIX.4.4|9=115|35=A|34=1|49=cServer|50=QUOTE|52=20250226-07:45:32.605|56=demo.tradeviewmarkets.3193335|57=QUOTE|98=0|108=60|141=Y|10=209|8=FIX.4.4|9=2932|35=y|34=2|49=cServer|50=QUOTE|52=20250226-07:45:32.605|56=demo.tradeviewmarkets.3193335|57=QUOTE|320=125|322=responce:125|560=0|146=107|55=1|1007=EURUSD|1008=5|55=2|1007=GBPUSD|1008=5|55=3|1007=EURJPY|1008=3|55=4|1007=USDJPY|1008=3|55=5|1007=AUDUSD|1008=5|55=6|1007=USDCHF|1008=5|55=7|1007=GBPJPY|1008=3|55=8|1007=USDCAD|1008=5|55=9|1007=EURGBP|1008=5|55=10|1007=EURCHF|1008=5|55=11|1007=AUDJPY|1008=3|55=12|1007=NZDUSD|1008=5|55=13|1007=CHFJPY|1008=3|55=14|1007=EURAUD|1008=5|55=15|1007=CADJPY|1008=3|55=16|1007=GBPAUD|1008=5|55=17|1007=EURCAD|1008=5|55=18|1007=AUDCAD|1008=5|55=19|1007=GBPCAD|1008=5|55=20|1007=AUDNZD|1008=5|55=21|1007=NZDJPY|1008=3|55=22|1007=USDNOK|1008=4|55=23|1007=AUDCHF|1008=5|55=24|1007=USDMXN|1008=4|55=25|1007=GBPNZD|1008=5|55=26|1007=EURNZD|1008=5|55=27|1007=CADCHF|1008=5|55=28|1007=USDSGD|1008=5|55=29|1007=USDSEK|1008=4|55=30|1007=NZDCAD|1008=5|55=31|1007=EURSEK|1008=4|55=32|1007=GBPSGD|1008=4|55=33|1007=EURNOK|1008=4|55=34|1007=EURHUF|1008=2|55=35|1007=USDPLN|1008=4|55=36|1007=USDDKK|1008=4|55=37|1007=GBPNOK|1008=4|55=38|1007=AUDDKK|1008=4|55=39|1007=NZDCHF|1008=5|55=40|1007=GBPCHF|1008=5|55=41|1007=XAUUSD|1008=2|55=42|1007=XAGUSD|1008=3|55=43|1007=USDTRY|1008=5|55=44|1007=NGAS|1008=3|55=45|1007=USDZAR|1008=5|55=46|1007=BTC/USD|1008=2|55=47|1007=ETH/USD|1008=2|55=48|1007=LTC/USD|1008=2|55=49|1007=XBN/USD|1008=2|55=50|1007=XRP/USD|1008=5|55=51|1007=EUR/CHF|1008=5|55=52|1007=AUD/JPY|1008=3|55=53|1007=NZD/USD|1008=5|55=54|1007=CHF/JPY|1008=3|55=55|1007=EUR/AUD|1008=5|55=56|1007=CAD/JPY|1008=3|55=57|1007=GBP/AUD|1008=5|55=58|1007=EUR/CAD|1008=5|55=59|1007=GBP/CAD|1008=5|55=60|1007=AUD/NZD|1008=5|55=61|1007=NZD/JPY|1008=3|55=62|1007=AUD/USD|1008=5|55=63|1007=AUD/CHF|1008=5|55=64|1007=GBP/NZD|1008=5|55=65|1007=EUR/NZD|1008=5|55=66|1007=USD/SEK|1008=5|55=67|1007=NZD/CAD|1008=5|55=68|1007=GBP/NOK|1008=5|55=69|1007=AUD/DKK|1008=4|55=70|1007=NZD/CHF|
IN: 1008=5|55=71|1007=GBP/CHF|1008=5|55=72|1007=XAU/USD|1008=2|55=73|1007=EUR/JPY|1008=3|55=74|1007=EUR/GBP|1008=5|55=75|1007=CAD/CHF|1008=5|55=76|1007=USD/CHF|1008=5|55=77|1007=AUD/CAD|1008=5|55=78|1007=USD/SGD|1008=5|55=79|1007=GBP/USD|1008=5|55=80|1007=EUR/SEK|1008=5|55=81|1007=EUR/NOK|1008=5|55=82|1007=EUR/HUF|1008=3|55=83|1007=USD/JPY|1008=3|55=84|1007=GBP/JPY|1008=3|55=85|1007=USD/PLN|1008=5|55=86|1007=USD/DKK|1008=5|55=87|1007=XAG/USD|1008=3|55=88|1007=GBP/SGD|1008=5|55=89|1007=EUR/USD|1008=5|55=90|1007=USD/TRY|1008=5|55=91|1007=USD/CAD|1008=5|55=92|1007=USD/NOK|1008=5|55=93|1007=USD/ZAR|1008=5|55=94|1007=USD/MXN|1008=4|55=95|1007=Australia 200|1008=2|55=96|1007=Europe 50|1008=1|55=97|1007=France 40|1008=1|55=98|1007=Germany 30 (Mini)|1008=1|55=99|1007=Hong Kong 50|1008=2|55=100|1007=Japan 225|1008=0|55=101|1007=Spain 35|1008=1|55=102|1007=UK 100|1008=1|55=103|1007=US SPX 500 (Mini)|1008=1|55=104|1007=US Tech 100 (Mini)|1008=1|55=105|1007=Wall Street 30 (Mini)|1008=0|55=106|1007=XTI/USD|1008=2|55=107|1007=XBR/USD|1008=3|10=253|
; a very big messge that cannot be parsed in one go.

CONNECTING
OUT: 8=FIX.4.4|9=137|35=A|49=demo.tradeviewmarkets.3193335|56=cServer|34=1|50=QUOTE|57=QUOTE|52=20250226-22:22:39|98=0|108=60|141=Y|553=3193335|554=123456789|10=010|
OUT: 8=FIX.4.4|9=107|35=x|49=demo.tradeviewmarkets.3193335|56=cServer|34=2|50=QUOTE|57=QUOTE|52=20250226-22:22:39|320=125|559=0|10=115|
CONNECTING
OUT: 8=FIX.4.4|9=137|35=A|49=demo.tradeviewmarkets.3193335|56=cServer|34=1|50=QUOTE|57=QUOTE|52=20250226-22:23:35|98=0|108=60|141=Y|553=3193335|554=123456789|10=007|
OUT: 8=FIX.4.4|9=107|35=x|49=demo.tradeviewmarkets.3193335|56=cServer|34=2|50=QUOTE|57=QUOTE|52=20250226-22:23:35|320=125|559=0|10=112|
CONNECTING
OUT: 8=FIX.4.4|9=137|35=A|49=demo.tradeviewmarkets.3193335|56=cServer|34=1|50=QUOTE|57=QUOTE|52=20250226-22:24:15|98=0|108=60|141=Y|553=3193335|554=123456789|10=006|
OUT: 8=FIX.4.4|9=107|35=x|49=demo.tradeviewmarkets.3193335|56=cServer|34=2|50=QUOTE|57=QUOTE|52=20250226-22:24:15|320=125|559=0|10=111|
CONNECTING
OUT: 8=FIX.4.4|9=137|35=A|49=demo.tradeviewmarkets.3193335|56=cServer|34=1|50=QUOTE|57=QUOTE|52=20250226-22:24:57|98=0|108=60|141=Y|553=3193335|554=123456789|10=012|
OUT: 8=FIX.4.4|9=107|35=x|49=demo.tradeviewmarkets.3193335|56=cServer|34=2|50=QUOTE|57=QUOTE|52=20250226-22:24:57|320=125|559=0|10=117|
IN: ["8" "FIX.4.4"]
IN: ["9" "115"]
IN: ["35" "A"]
IN: ["34" "1"]
IN: ["49" "cServer"]
IN: ["50" "QUOTE"]
IN: ["52" "20250226-22:24:57.967"]
IN: ["56" "demo.tradeviewmarkets.3193335"]
IN: ["57" "QUOTE"]
IN: ["98" "0"]
IN: ["108" "60"]
IN: ["141" "Y"]
IN: ["10" "221"]
IN: ["8" "FIX.4.4"]
IN: ["9" "2932"]
IN: ["35" "y"]
IN: ["34" "2"]
IN: ["49" "cServer"]
IN: ["50" "QUOTE"]
IN: ["52" "20250226-22:24:57.968"]
IN: ["56" "demo.tradeviewmarkets.3193335"]
IN: ["57" "QUOTE"]
IN: ["320" "125"]
IN: ["322" "responce:125"]
IN: ["560" "0"]
IN: ["146" "107"]
IN: ["55" "1"]
IN: ["1007" "EURUSD"]
IN: ["1008" "5"]
IN: ["55" "2"]
IN: ["1007" "GBPUSD"]
IN: ["1008" "5"]
IN: ["55" "3"]
IN: ["1007" "EURJPY"]
IN: ["1008" "3"]
IN: ["55" "4"]
IN: ["1007" "USDJPY"]
IN: ["1008" "3"]
IN: ["55" "5"]
IN: ["1007" "AUDUSD"]
IN: ["1008" "5"]
IN: ["55" "6"]
IN: ["1007" "USDCHF"]
IN: ["1008" "5"]
IN: ["55" "7"]
IN: ["1007" "GBPJPY"]
IN: ["1008" "3"]
IN: ["55" "8"]
IN: ["1007" "USDCAD"]
IN: ["1008" "5"]
IN: ["55" "9"]
IN: ["1007" "EURGBP"]
IN: ["1008" "5"]
IN: ["55" "10"]
IN: ["1007" "EURCHF"]
IN: ["1008" "5"]
IN: ["55" "11"]
IN: ["1007" "AUDJPY"]
IN: ["1008" "3"]
IN: ["55" "12"]
IN: ["1007" "NZDUSD"]
IN: ["1008" "5"]
IN: ["55" "13"]
IN: ["1007" "CHFJPY"]
IN: ["1008" "3"]
IN: ["55" "14"]
IN: ["1007" "EURAUD"]
IN: ["1008" "5"]
IN: ["55" "15"]
IN: ["1007" "CADJPY"]
IN: ["1008" "3"]
IN: ["55" "16"]
IN: ["1007" "GBPAUD"]
IN: ["1008" "5"]
IN: ["55" "17"]
IN: ["1007" "EURCAD"]
IN: ["1008" "5"]
IN: ["55" "18"]
IN: ["1007" "AUDCAD"]
IN: ["1008" "5"]
IN: ["55" "19"]
IN: ["1007" "GBPCAD"]
IN: ["1008" "5"]
IN: ["55" "20"]
IN: ["1007" "AUDNZD"]
IN: ["1008" "5"]
IN: ["55" "21"]
IN: ["1007" "NZDJPY"]
IN: ["1008" "3"]
IN: ["55" "22"]
IN: ["1007" "USDNOK"]
IN: ["1008" "4"]
IN: ["55" "23"]
IN: ["1007" "AUDCHF"]
IN: ["1008" "5"]
IN: ["55" "24"]
IN: ["1007" "USDMXN"]
IN: ["1008" "4"]
IN: ["55" "25"]
IN: ["1007" "GBPNZD"]
IN: ["1008" "5"]
IN: ["55" "26"]
IN: ["1007" "EURNZD"]
IN: ["1008" "5"]
IN: ["55" "27"]
IN: ["1007" "CADCHF"]
IN: ["1008" "5"]
IN: ["55" "28"]
IN: ["1007" "USDSGD"]
IN: ["1008" "5"]
IN: ["55" "29"]
IN: ["1007" "USDSEK"]
IN: ["1008" "4"]
IN: ["55" "30"]
IN: ["1007" "NZDCAD"]
IN: ["1008" "5"]
IN: ["55" "31"]
IN: ["1007" "EURSEK"]
IN: ["1008" "4"]
IN: ["55" "32"]
IN: ["1007" "GBPSGD"]
IN: ["1008" "4"]
IN: ["55" "33"]
IN: ["1007" "EURNOK"]
IN: ["1008" "4"]
IN: ["55" "34"]
IN: ["1007" "EURHUF"]
IN: ["1008" "2"]
IN: ["55" "35"]
IN: ["1007" "USDPLN"]
IN: ["1008" "4"]
IN: ["55" "36"]
IN: ["1007" "USDDKK"]
IN: ["1008" "4"]
IN: ["55" "37"]
IN: ["1007" "GBPNOK"]
IN: ["1008" "4"]
IN: ["55" "38"]
IN: ["1007" "AUDDKK"]
IN: ["1008" "4"]
IN: ["55" "39"]
IN: ["1007" "NZDCHF"]
IN: ["1008" "5"]
IN: ["55" "40"]
IN: ["1007" "GBPCHF"]
IN: ["1008" "5"]
IN: ["55" "41"]
IN: ["1007" "XAUUSD"]
IN: ["1008" "2"]
IN: ["55" "42"]
IN: ["1007" "XAGUSD"]
IN: ["1008" "3"]
IN: ["55" "43"]
IN: ["1007" "USDTRY"]
IN: ["1008" "5"]
IN: ["55" "44"]
IN: ["1007" "NGAS"]
IN: ["1008" "3"]
IN: ["55" "45"]
IN: ["1007" "USDZAR"]
IN: ["1008" "5"]
IN: ["55" "46"]
IN: ["1007" "BTC/USD"]
IN: ["1008" "2"]
IN: ["55" "47"]
IN: ["1007" "ETH/USD"]
IN: ["1008" "2"]
IN: ["55" "48"]
IN: ["1007" "LTC/USD"]
IN: ["1008" "2"]
IN: ["55" "49"]
IN: ["1007" "XBN/USD"]
IN: ["1008" "2"]
IN: ["55" "50"]
IN: ["1007" "XRP/USD"]
IN: ["1008" "5"]
IN: ["55" "51"]
IN: ["1007" "EUR/CHF"]
IN: ["1008" "5"]
IN: ["55" "52"]
IN: ["1007" "AUD/JPY"]
IN: ["1008" "3"]
IN: ["55" "53"]
IN: ["1007" "NZD/USD"]
IN: ["1008" "5"]
IN: ["55" "54"]
IN: ["1007" "CHF/JPY"]
IN: ["1008" "3"]
IN: ["55" "55"]
IN: ["1007" "EUR/AUD"]
IN: ["1008" "5"]
IN: ["55" "56"]
IN: ["1007" "CAD/JPY"]
IN: ["1008" "3"]
IN: ["55" "57"]
IN: ["1007" "GBP/AUD"]
IN: ["1008" "5"]
IN: ["55" "58"]
IN: ["1007" "EUR/CAD"]
IN: ["1008" "5"]
IN: ["55" "59"]
IN: ["1007" "GBP/CAD"]
IN: ["1008" "5"]
IN: ["55" "60"]
IN: ["1007" "AUD/NZD"]
IN: ["1008" "5"]
IN: ["55" "61"]
IN: ["1007" "NZD/JPY"]
IN: ["1008" "3"]
IN: ["55" "62"]
IN: ["1007" "AUD/USD"]
IN: ["1008" "5"]
IN: ["55" "63"]
IN: ["1007" "AUD/CHF"]
IN: ["1008" "5"]
IN: ["55" "64"]
IN: ["1007" "GBP/NZD"]
IN: ["1008" "5"]
IN: ["55" "65"]
IN: ["1007" "EUR/NZD"]
IN: ["1008" "5"]
IN: ["55" "66"]
IN: ["1007" "USD/SEK"]
IN: ["1008" "5"]
IN: ["55" "67"]
IN: ["1007" "NZD/CAD"]
IN: ["1008" "5"]
IN: ["55" "68"]
IN: ["1007" "GBP/NOK"]
IN: ["1008" "5"]
IN: ["55" "69"]
IN: ["1007" "AUD/DKK"]
IN: ["1008" "4"]
IN: ["55" "70"]
IN: ["1007" "NZD/CHF"]
IN: ["1008" "5"]
IN: ["55" "71"]
IN: ["1007" "GBP/CHF"]
IN: ["1008" "5"]
IN: ["55" "72"]
IN: ["1007" "XAU/USD"]
IN: ["1008" "2"]
IN: ["55" "73"]
IN: ["1007" "EUR/JPY"]
IN: ["1008" "3"]
IN: ["55" "74"]
IN: ["1007" "EUR/GBP"]
IN: ["1008" "5"]
IN: ["55" "75"]
IN: ["1007" "CAD/CHF"]
IN: ["1008" "5"]
IN: ["55" "76"]
IN: ["1007" "USD/CHF"]
IN: ["1008" "5"]
IN: ["55" "77"]
IN: ["1007" "AUD/CAD"]
IN: ["1008" "5"]
IN: ["55" "78"]
IN: ["1007" "USD/SGD"]
IN: ["1008" "5"]
IN: ["55" "79"]
IN: ["1007" "GBP/USD"]
IN: ["1008" "5"]
IN: ["55" "80"]
IN: ["1007" "EUR/SEK"]
IN: ["1008" "5"]
IN: ["55" "81"]
IN: ["1007" "EUR/NOK"]
IN: ["1008" "5"]
IN: ["55" "82"]
IN: ["1007" "EUR/HUF"]
IN: ["1008" "3"]
IN: ["55" "83"]
IN: ["1007" "USD/JPY"]
IN: ["1008" "3"]
IN: ["55" "84"]
IN: ["1007" "GBP/JPY"]
IN: ["1008" "3"]
IN: ["55" "85"]
IN: ["1007" "USD/PLN"]
IN: ["1008" "5"]
IN: ["55" "86"]
IN: ["1007" "USD/DKK"]
IN: ["1008" "5"]
IN: ["55" "87"]
IN: ["1007" "XAG/USD"]
IN: ["1008" "3"]
IN: ["55" "88"]
IN: ["1007" "GBP/SGD"]
IN: ["1008" "5"]
IN: ["55" "89"]
IN: ["1007" "EUR/USD"]
IN: ["1008" "5"]
IN: ["55" "90"]
IN: ["1007" "USD/TRY"]
IN: ["1008" "5"]
IN: ["55" "91"]
IN: ["1007" "USD/CAD"]
IN: ["1008" "5"]
IN: ["55" "92"]
IN: ["1007" "USD/NOK"]
IN: ["1008" "5"]
IN: ["55" "93"]
IN: ["1007" "USD/ZAR"]
IN: ["1008" "5"]
IN: ["55" "94"]
IN: ["1007" "USD/MXN"]
IN: ["1008" "4"]
IN: ["55" "95"]
IN: ["1007" "Australia 200"]
IN: ["1008" "2"]
IN: ["55" "96"]
IN: ["1007" "Europe 50"]
IN: ["1008" "1"]
IN: ["55" "97"]
IN: ["1007" "France 40"]
IN: ["1008" "1"]
IN: ["55" "98"]
IN: ["1007" "Germany 30 (Mini)"]
IN: ["1008" "1"]
IN: ["55" "99"]
IN: ["1007" "Hong Kong 50"]
IN: ["1008" "2"]
IN: ["55" "100"]
IN: ["1007" "Japan 225"]
IN: ["1008" "0"]
IN: ["55" "101"]
IN: ["1007" "Spain 35"]
IN: ["1008" "1"]
IN: ["55" "102"]
IN: ["1007" "UK 100"]
IN: ["1008" "1"]
IN: ["55" "103"]
IN: ["1007" "US SPX 500 (Mini)"]
IN: ["1008" "1"]
IN: ["55" "104"]
IN: ["1007" "US Tech 100 (Mini)"]
IN: ["1008" "1"]
IN: ["55" "105"]
IN: ["1007" "Wall Street 30 (Mini)"]
IN: ["1008" "0"]
IN: ["55" "106"]
IN: ["1007" "XTI/USD"]
IN: ["1008" "2"]
IN: ["55" "107"]
IN: ["1007" "XBR/USD"]
IN: ["1008" "3"]
IN: ["10" "010"]
OUT: 8=FIX.4.4|9=107|35=x|49=demo.tradeviewmarkets.3193335|56=cServer|34=3|50=QUOTE|57=QUOTE|52=20250226-22:25:09|320=125|559=0|10=116|
IN: ["8" "FIX.4.4"]
IN: ["9" "2932"]
IN: ["35" "y"]
IN: ["34" "3"]
IN: ["49" "cServer"]
IN: ["50" "QUOTE"]
IN: ["52" "20250226-22:25:09.786"]
IN: ["56" "demo.tradeviewmarkets.3193335"]
IN: ["57" "QUOTE"]
IN: ["320" "125"]
IN: ["322" "responce:125"]
IN: ["560" "0"]
IN: ["146" "107"]
IN: ["55" "1"]
IN: ["1007" "EURUSD"]
IN: ["1008" "5"]
IN: ["55" "2"]
IN: ["1007" "GBPUSD"]
IN: ["1008" "5"]
IN: ["55" "3"]
IN: ["1007" "EURJPY"]
IN: ["1008" "3"]
IN: ["55" "4"]
IN: ["1007" "USDJPY"]
IN: ["1008" "3"]
IN: ["55" "5"]
IN: ["1007" "AUDUSD"]
IN: ["1008" "5"]
IN: ["55" "6"]
IN: ["1007" "USDCHF"]
IN: ["1008" "5"]
IN: ["55" "7"]
IN: ["1007" "GBPJPY"]
IN: ["1008" "3"]
IN: ["55" "8"]
IN: ["1007" "USDCAD"]
IN: ["1008" "5"]
IN: ["55" "9"]
IN: ["1007" "EURGBP"]
IN: ["1008" "5"]
IN: ["55" "10"]
IN: ["1007" "EURCHF"]
IN: ["1008" "5"]
IN: ["55" "11"]
IN: ["1007" "AUDJPY"]
IN: ["1008" "3"]
IN: ["55" "12"]
IN: ["1007" "NZDUSD"]
IN: ["1008" "5"]
IN: ["55" "13"]
IN: ["1007" "CHFJPY"]
IN: ["1008" "3"]
IN: ["55" "14"]
IN: ["1007" "EURAUD"]
IN: ["1008" "5"]
IN: ["55" "15"]
IN: ["1007" "CADJPY"]
IN: ["1008" "3"]
IN: ["55" "16"]
IN: ["1007" "GBPAUD"]
IN: ["1008" "5"]
IN: ["55" "17"]
IN: ["1007" "EURCAD"]
IN: ["1008" "5"]
IN: ["55" "18"]
IN: ["1007" "AUDCAD"]
IN: ["1008" "5"]
IN: ["55" "19"]
IN: ["1007" "GBPCAD"]
IN: ["1008" "5"]
IN: ["55" "20"]
IN: ["1007" "AUDNZD"]
IN: ["1008" "5"]
IN: ["55" "21"]
IN: ["1007" "NZDJPY"]
IN: ["1008" "3"]
IN: ["55" "22"]
IN: ["1007" "USDNOK"]
IN: ["1008" "4"]
IN: ["55" "23"]
IN: ["1007" "AUDCHF"]
IN: ["1008" "5"]
IN: ["55" "24"]
IN: ["1007" "USDMXN"]
IN: ["1008" "4"]
IN: ["55" "25"]
IN: ["1007" "GBPNZD"]
IN: ["1008" "5"]
IN: ["55" "26"]
IN: ["1007" "EURNZD"]
IN: ["1008" "5"]
IN: ["55" "27"]
IN: ["1007" "CADCHF"]
IN: ["1008" "5"]
IN: ["55" "28"]
IN: ["1007" "USDSGD"]
IN: ["1008" "5"]
IN: ["55" "29"]
IN: ["1007" "USDSEK"]
IN: ["1008" "4"]
IN: ["55" "30"]
IN: ["1007" "NZDCAD"]
IN: ["1008" "5"]
IN: ["55" "31"]
IN: ["1007" "EURSEK"]
IN: ["1008" "4"]
IN: ["55" "32"]
IN: ["1007" "GBPSGD"]
IN: ["1008" "4"]
IN: ["55" "33"]
IN: ["1007" "EURNOK"]
IN: ["1008" "4"]
IN: ["55" "34"]
IN: ["1007" "EURHUF"]
IN: ["1008" "2"]
IN: ["55" "35"]
IN: ["1007" "USDPLN"]
IN: ["1008" "4"]
IN: ["55" "36"]
IN: ["1007" "USDDKK"]
IN: ["1008" "4"]
IN: ["55" "37"]
IN: ["1007" "GBPNOK"]
IN: ["1008" "4"]
IN: ["55" "38"]
IN: ["1007" "AUDDKK"]
IN: ["1008" "4"]
IN: ["55" "39"]
IN: ["1007" "NZDCHF"]
IN: ["1008" "5"]
IN: ["55" "40"]
IN: ["1007" "GBPCHF"]
IN: ["1008" "5"]
IN: ["55" "41"]
IN: ["1007" "XAUUSD"]
IN: ["1008" "2"]
IN: ["55" "42"]
IN: ["1007" "XAGUSD"]
IN: ["1008" "3"]
IN: ["55" "43"]
IN: ["1007" "USDTRY"]
IN: ["1008" "5"]
IN: ["55" "44"]
IN: ["1007" "NGAS"]
IN: ["1008" "3"]
IN: ["55" "45"]
IN: ["1007" "USDZAR"]
IN: ["1008" "5"]
IN: ["55" "46"]
IN: ["1007" "BTC/USD"]
IN: ["1008" "2"]
IN: ["55" "47"]
IN: ["1007" "ETH/USD"]
IN: ["1008" "2"]
IN: ["55" "48"]
IN: ["1007" "LTC/USD"]
IN: ["1008" "2"]
IN: ["55" "49"]
IN: ["1007" "XBN/USD"]
IN: ["1008" "2"]
IN: ["55" "50"]
IN: ["1007" "XRP/USD"]
IN: ["1008" "5"]
IN: ["55" "51"]
IN: ["1007" "EUR/CHF"]
IN: ["1008" "5"]
IN: ["55" "52"]
IN: ["1007" "AUD/JPY"]
IN: ["1008" "3"]
IN: ["55" "53"]
IN: ["1007" "NZD/USD"]
IN: ["1008" "5"]
IN: ["55" "54"]
IN: ["1007" "CHF/JPY"]
IN: ["1008" "3"]
IN: ["55" "55"]
IN: ["1007" "EUR/AUD"]
IN: ["1008" "5"]
IN: ["55" "56"]
IN: ["1007" "CAD/JPY"]
IN: ["1008" "3"]
IN: ["55" "57"]
IN: ["1007" "GBP/AUD"]
IN: ["1008" "5"]
IN: ["55" "58"]
IN: ["1007" "EUR/CAD"]
IN: ["1008" "5"]
IN: ["55" "59"]
IN: ["1007" "GBP/CAD"]
IN: ["1008" "5"]
IN: ["55" "60"]
IN: ["1007" "AUD/NZD"]
IN: ["1008" "5"]
IN: ["55" "61"]
IN: ["1007" "NZD/JPY"]
IN: ["1008" "3"]
IN: ["55" "62"]
IN: ["1007" "AUD/USD"]
IN: ["1008" "5"]
IN: ["55" "63"]
IN: ["1007" "AUD/CHF"]
IN: ["1008" "5"]
IN: ["55" "64"]
IN: ["1007" "GBP/NZD"]
IN: ["1008" "5"]
IN: ["55" "65"]
IN: ["1007" "EUR/NZD"]
IN: ["1008" "5"]
IN: ["55" "66"]
IN: ["1007" "USD/SEK"]
IN: ["1008" "5"]
IN: ["55" "67"]
IN: ["1007" "NZD/CAD"]
IN: ["1008" "5"]
IN: ["55" "68"]
IN: ["1007" "GBP/NOK"]
IN: ["1008" "5"]
IN: ["55" "69"]
IN: ["1007" "AUD/DKK"]
IN: ["1008" "4"]
IN: ["55" "70"]
IN: ["1007" "NZD/CHF"]
IN: ["1008" "5"]
IN: ["55" "71"]
IN: ["1007" "GBP/CHF"]
IN: ["1008" "5"]
IN: ["55" "72"]
IN: ["1007" "XAU/USD"]
IN: ["1008" "2"]
IN: ["55" "73"]
IN: ["1007" "EUR/JPY"]
IN: ["1008" "3"]
IN: ["55" "74"]
IN: ["1007" "EUR/GBP"]
IN: ["1008" "5"]
IN: ["55" "75"]
IN: ["1007" "CAD/CHF"]
IN: ["1008" "5"]
IN: ["55" "76"]
IN: ["1007" "USD/CHF"]
IN: ["1008" "5"]
IN: ["55" "77"]
IN: ["1007" "AUD/CAD"]
IN: ["1008" "5"]
IN: ["55" "78"]
IN: ["1007" "USD/SGD"]
IN: ["1008" "5"]
IN: ["55" "79"]
IN: ["1007" "GBP/USD"]
IN: ["1008" "5"]
IN: ["55" "80"]
IN: ["1007" "EUR/SEK"]
IN: ["1008" "5"]
IN: ["55" "81"]
IN: ["1007" "EUR/NOK"]
IN: ["1008" "5"]
IN: ["55" "82"]
IN: ["1007" "EUR/HUF"]
IN: ["1008" "3"]
IN: ["55" "83"]
IN: ["1007" "USD/JPY"]
IN: ["1008" "3"]
IN: ["55" "84"]
IN: ["1007" "GBP/JPY"]
IN: ["1008" "3"]
IN: ["55" "85"]
IN: ["1007" "USD/PLN"]
IN: ["1008" "5"]
IN: ["55" "86"]
IN: ["1007" "USD/DKK"]
IN: ["1008" "5"]
IN: ["55" "87"]
IN: ["1007" "XAG/USD"]
IN: ["1008" "3"]
IN: ["55" "88"]
IN: ["1007" "GBP/SGD"]
IN: ["1008" "5"]
IN: ["55" "89"]
IN: ["1007" "EUR/USD"]
IN: ["1008" "5"]
IN: ["55" "90"]
IN: ["1007" "USD/TRY"]
IN: ["1008" "5"]
IN: ["55" "91"]
IN: ["1007" "USD/CAD"]
IN: ["1008" "5"]
IN: ["55" "92"]
IN: ["1007" "USD/NOK"]
IN: ["1008" "5"]
IN: ["55" "93"]
IN: ["1007" "USD/ZAR"]
IN: ["1008" "5"]
IN: ["55" "94"]
IN: ["1007" "USD/MXN"]
IN: ["1008" "4"]
IN: ["55" "95"]
IN: ["1007" "Australia 200"]
IN: ["1008" "2"]
IN: ["55" "96"]
IN: ["1007" "Europe 50"]
IN: ["1008" "1"]
IN: ["55" "97"]
IN: ["1007" "France 40"]
IN: ["1008" "1"]
IN: ["55" "98"]
IN: ["1007" "Germany 30 (Mini)"]
IN: ["1008" "1"]
IN: ["55" "99"]
IN: ["1007" "Hong Kong 50"]
IN: ["1008" "2"]
IN: ["55" "100"]
IN: ["1007" "Japan 225"]
IN: ["1008" "0"]
IN: ["55" "101"]
IN: ["1007" "Spain 35"]
IN: ["1008" "1"]
IN: ["55" "102"]
IN: ["1007" "UK 100"]
IN: ["1008" "1"]
IN: ["55" "103"]
IN: ["1007" "US SPX 500 (Mini)"]
IN: ["1008" "1"]
IN: ["55" "104"]
IN: ["1007" "US Tech 100 (Mini)"]
IN: ["1008" "1"]
IN: ["55" "105"]
IN: ["1007" "Wall Street 30 (Mini)"]
IN: ["1008" "0"]
IN: ["55" "106"]
IN: ["1007" "XTI/USD"]
IN: ["1008" "2"]
IN: ["55" "107"]
IN: ["1007" "XBR/USD"]
IN: ["1008" "3"]
IN: ["10" "007"]
OUT: 8=FIX.4.4|9=107|35=x|49=demo.tradeviewmarkets.3193335|56=cServer|34=4|50=QUOTE|57=QUOTE|52=20250226-22:25:29|320=125|559=0|10=119|
IN: ["8" "FIX.4.4"]
IN: ["9" "2932"]
IN: ["35" "y"]
IN: ["34" "4"]
IN: ["49" "cServer"]
IN: ["50" "QUOTE"]
IN: ["52" "20250226-22:25:29.849"]
IN: ["56" "demo.tradeviewmarkets.3193335"]
IN: ["57" "QUOTE"]
IN: ["320" "125"]
IN: ["322" "responce:125"]
IN: ["560" "0"]
IN: ["146" "107"]
IN: ["55" "1"]
IN: ["1007" "EURUSD"]
IN: ["1008" "5"]
IN: ["55" "2"]
IN: ["1007" "GBPUSD"]
IN: ["1008" "5"]
IN: ["55" "3"]
IN: ["1007" "EURJPY"]
IN: ["1008" "3"]
IN: ["55" "4"]
IN: ["1007" "USDJPY"]
IN: ["1008" "3"]
IN: ["55" "5"]
IN: ["1007" "AUDUSD"]
IN: ["1008" "5"]
IN: ["55" "6"]
IN: ["1007" "USDCHF"]
IN: ["1008" "5"]
IN: ["55" "7"]
IN: ["1007" "GBPJPY"]
IN: ["1008" "3"]
IN: ["55" "8"]
IN: ["1007" "USDCAD"]
IN: ["1008" "5"]
IN: ["55" "9"]
IN: ["1007" "EURGBP"]
IN: ["1008" "5"]
IN: ["55" "10"]
IN: ["1007" "EURCHF"]
IN: ["1008" "5"]
IN: ["55" "11"]
IN: ["1007" "AUDJPY"]
IN: ["1008" "3"]
IN: ["55" "12"]
IN: ["1007" "NZDUSD"]
IN: ["1008" "5"]
IN: ["55" "13"]
IN: ["1007" "CHFJPY"]
IN: ["1008" "3"]
IN: ["55" "14"]
IN: ["1007" "EURAUD"]
IN: ["1008" "5"]
IN: ["55" "15"]
IN: ["1007" "CADJPY"]
IN: ["1008" "3"]
IN: ["55" "16"]
IN: ["1007" "GBPAUD"]
IN: ["1008" "5"]
IN: ["55" "17"]
IN: ["1007" "EURCAD"]
IN: ["1008" "5"]
IN: ["55" "18"]
IN: ["1007" "AUDCAD"]
IN: ["1008" "5"]
IN: ["55" "19"]
IN: ["1007" "GBPCAD"]
IN: ["1008" "5"]
IN: ["55" "20"]
IN: ["1007" "AUDNZD"]
IN: ["1008" "5"]
IN: ["55" "21"]
IN: ["1007" "NZDJPY"]
IN: ["1008" "3"]
IN: ["55" "22"]
IN: ["1007" "USDNOK"]
IN: ["1008" "4"]
IN: ["55" "23"]
IN: ["1007" "AUDCHF"]
IN: ["1008" "5"]
IN: ["55" "24"]
IN: ["1007" "USDMXN"]
IN: ["1008" "4"]
IN: ["55" "25"]
IN: ["1007" "GBPNZD"]
IN: ["1008" "5"]
IN: ["55" "26"]
IN: ["1007" "EURNZD"]
IN: ["1008" "5"]
IN: ["55" "27"]
IN: ["1007" "CADCHF"]
IN: ["1008" "5"]
IN: ["55" "28"]
IN: ["1007" "USDSGD"]
IN: ["1008" "5"]
IN: ["55" "29"]
IN: ["1007" "USDSEK"]
IN: ["1008" "4"]
IN: ["55" "30"]
IN: ["1007" "NZDCAD"]
IN: ["1008" "5"]
IN: ["55" "31"]
IN: ["1007" "EURSEK"]
IN: ["1008" "4"]
IN: ["55" "32"]
IN: ["1007" "GBPSGD"]
IN: ["1008" "4"]
IN: ["55" "33"]
IN: ["1007" "EURNOK"]
IN: ["1008" "4"]
IN: ["55" "34"]
IN: ["1007" "EURHUF"]
IN: ["1008" "2"]
IN: ["55" "35"]
IN: ["1007" "USDPLN"]
IN: ["1008" "4"]
IN: ["55" "36"]
IN: ["1007" "USDDKK"]
IN: ["1008" "4"]
IN: ["55" "37"]
IN: ["1007" "GBPNOK"]
IN: ["1008" "4"]
IN: ["55" "38"]
IN: ["1007" "AUDDKK"]
IN: ["1008" "4"]
IN: ["55" "39"]
IN: ["1007" "NZDCHF"]
IN: ["1008" "5"]
IN: ["55" "40"]
IN: ["1007" "GBPCHF"]
IN: ["1008" "5"]
IN: ["55" "41"]
IN: ["1007" "XAUUSD"]
IN: ["1008" "2"]
IN: ["55" "42"]
IN: ["1007" "XAGUSD"]
IN: ["1008" "3"]
IN: ["55" "43"]
IN: ["1007" "USDTRY"]
IN: ["1008" "5"]
IN: ["55" "44"]
IN: ["1007" "NGAS"]
IN: ["1008" "3"]
IN: ["55" "45"]
IN: ["1007" "USDZAR"]
IN: ["1008" "5"]
IN: ["55" "46"]
IN: ["1007" "BTC/USD"]
IN: ["1008" "2"]
IN: ["55" "47"]
IN: ["1007" "ETH/USD"]
IN: ["1008" "2"]
IN: ["55" "48"]
IN: ["1007" "LTC/USD"]
IN: ["1008" "2"]
IN: ["55" "49"]
IN: ["1007" "XBN/USD"]
IN: ["1008" "2"]
IN: ["55" "50"]
IN: ["1007" "XRP/USD"]
IN: ["1008" "5"]
IN: ["55" "51"]
IN: ["1007" "EUR/CHF"]
IN: ["1008" "5"]
IN: ["55" "52"]
IN: ["1007" "AUD/JPY"]
IN: ["1008" "3"]
IN: ["55" "53"]
IN: ["1007" "NZD/USD"]
IN: ["1008" "5"]
IN: ["55" "54"]
IN: ["1007" "CHF/JPY"]
IN: ["1008" "3"]
IN: ["55" "55"]
IN: ["1007" "EUR/AUD"]
IN: ["1008" "5"]
IN: ["55" "56"]
IN: ["1007" "CAD/JPY"]
IN: ["1008" "3"]
IN: ["55" "57"]
IN: ["1007" "GBP/AUD"]
IN: ["1008" "5"]
IN: ["55" "58"]
IN: ["1007" "EUR/CAD"]
IN: ["1008" "5"]
IN: ["55" "59"]
IN: ["1007" "GBP/CAD"]
IN: ["1008" "5"]
IN: ["55" "60"]
IN: ["1007" "AUD/NZD"]
IN: ["1008" "5"]
IN: ["55" "61"]
IN: ["1007" "NZD/JPY"]
IN: ["1008" "3"]
IN: ["55" "62"]
IN: ["1007" "AUD/USD"]
IN: ["1008" "5"]
IN: ["55" "63"]
IN: ["1007" "AUD/CHF"]
IN: ["1008" "5"]
IN: ["55" "64"]
IN: ["1007" "GBP/NZD"]
IN: ["1008" "5"]
IN: ["55" "65"]
IN: ["1007" "EUR/NZD"]
IN: ["1008" "5"]
IN: ["55" "66"]
IN: ["1007" "USD/SEK"]
IN: ["1008" "5"]
IN: ["55" "67"]
IN: ["1007" "NZD/CAD"]
IN: ["1008" "5"]
IN: ["55" "68"]
IN: ["1007" "GBP/NOK"]
IN: ["1008" "5"]
IN: ["55" "69"]
IN: ["1007" "AUD/DKK"]
IN: ["1008" "4"]
IN: ["55" "70"]
IN: ["1007" "NZD/CHF"]
IN: ["1008" "5"]
IN: ["55" "71"]
IN: ["1007" "GBP/CHF"]
IN: ["1008" "5"]
IN: ["55" "72"]
IN: ["1007" "XAU/USD"]
IN: ["1008" "2"]
IN: ["55" "73"]
IN: ["1007" "EUR/JPY"]
IN: ["1008" "3"]
IN: ["55" "74"]
IN: ["1007" "EUR/GBP"]
IN: ["1008" "5"]
IN: ["55" "75"]
IN: ["1007" "CAD/CHF"]
IN: ["1008" "5"]
IN: ["55" "76"]
IN: ["1007" "USD/CHF"]
IN: ["1008" "5"]
IN: ["55" "77"]
IN: ["1007" "AUD/CAD"]
IN: ["1008" "5"]
IN: ["55" "78"]
IN: ["1007" "USD/SGD"]
IN: ["1008" "5"]
IN: ["55" "79"]
IN: ["1007" "GBP/USD"]
IN: ["1008" "5"]
IN: ["55" "80"]
IN: ["1007" "EUR/SEK"]
IN: ["1008" "5"]
IN: ["55" "81"]
IN: ["1007" "EUR/NOK"]
IN: ["1008" "5"]
IN: ["55" "82"]
IN: ["1007" "EUR/HUF"]
IN: ["1008" "3"]
IN: ["55" "83"]
IN: ["1007" "USD/JPY"]
IN: ["1008" "3"]
IN: ["55" "84"]
IN: ["1007" "GBP/JPY"]
IN: ["1008" "3"]
IN: ["55" "85"]
IN: ["1007" "USD/PLN"]
IN: ["1008" "5"]
IN: ["55" "86"]
IN: ["1007" "USD/DKK"]
IN: ["1008" "5"]
IN: ["55" "87"]
IN: ["1007" "XAG/USD"]
IN: ["1008" "3"]
IN: ["55" "88"]
IN: ["1007" "GBP/SGD"]
IN: ["1008" "5"]
IN: ["55" "89"]
IN: ["1007" "EUR/USD"]
IN: ["1008" "5"]
IN: ["55" "90"]
IN: ["1007" "USD/TRY"]
IN: ["1008" "5"]
IN: ["55" "91"]
IN: ["1007" "USD/CAD"]
IN: ["1008" "5"]
IN: ["55" "92"]
IN: ["1007" "USD/NOK"]
IN: ["1008" "5"]
IN: ["55" "93"]
IN: ["1007" "USD/ZAR"]
IN: ["1008" "5"]
IN: ["55" "94"]
IN: ["1007" "USD/MXN"]
IN: ["1008" "4"]
IN: ["55" "95"]
IN: ["1007" "Australia 200"]
IN: ["1008" "2"]
IN: ["55" "96"]
IN: ["1007" "Europe 50"]
IN: ["1008" "1"]
IN: ["55" "97"]
IN: ["1007" "France 40"]
IN: ["1008" "1"]
IN: ["55" "98"]
IN: ["1007" "Germany 30 (Mini)"]
IN: ["1008" "1"]
IN: ["55" "99"]
IN: ["1007" "Hong Kong 50"]
IN: ["1008" "2"]
IN: ["55" "100"]
IN: ["1007" "Japan 225"]
IN: ["1008" "0"]
IN: ["55" "101"]
IN: ["1007" "Spain 35"]
IN: ["1008" "1"]
IN: ["55" "102"]
IN: ["1007" "UK 100"]
IN: ["1008" "1"]
IN: ["55" "103"]
IN: ["1007" "US SPX 500 (Mini)"]
IN: ["1008" "1"]
IN: ["55" "104"]
IN: ["1007" "US Tech 100 (Mini)"]
IN: ["1008" "1"]
IN: ["55" "105"]
IN: ["1007" "Wall Street 30 (Mini)"]
IN: ["1008" "0"]
IN: ["55" "106"]
IN: ["1007" "XTI/USD"]
IN: ["1008" "2"]
IN: ["55" "107"]
IN: ["1007" "XBR/USD"]
IN: ["1008" "3"]
IN: ["10" "010"]
OUT: 8=FIX.4.4|9=107|35=x|49=demo.tradeviewmarkets.3193335|56=cServer|34=5|50=QUOTE|57=QUOTE|52=20250226-22:25:31|320=125|559=0|10=113|
IN: ["8" "FIX.4.4"]
IN: ["9" "2932"]
IN: ["35" "y"]
IN: ["34" "5"]
IN: ["49" "cServer"]
IN: ["50" "QUOTE"]
IN: ["52" "20250226-22:25:31.677"]
IN: ["56" "demo.tradeviewmarkets.3193335"]
IN: ["57" "QUOTE"]
IN: ["320" "125"]
IN: ["322" "responce:125"]
IN: ["560" "0"]
IN: ["146" "107"]
IN: ["55" "1"]
IN: ["1007" "EURUSD"]
IN: ["1008" "5"]
IN: ["55" "2"]
IN: ["1007" "GBPUSD"]
IN: ["1008" "5"]
IN: ["55" "3"]
IN: ["1007" "EURJPY"]
IN: ["1008" "3"]
IN: ["55" "4"]
IN: ["1007" "USDJPY"]
IN: ["1008" "3"]
IN: ["55" "5"]
IN: ["1007" "AUDUSD"]
IN: ["1008" "5"]
IN: ["55" "6"]
IN: ["1007" "USDCHF"]
IN: ["1008" "5"]
IN: ["55" "7"]
IN: ["1007" "GBPJPY"]
IN: ["1008" "3"]
IN: ["55" "8"]
IN: ["1007" "USDCAD"]
IN: ["1008" "5"]
IN: ["55" "9"]
IN: ["1007" "EURGBP"]
IN: ["1008" "5"]
IN: ["55" "10"]
IN: ["1007" "EURCHF"]
IN: ["1008" "5"]
IN: ["55" "11"]
IN: ["1007" "AUDJPY"]
IN: ["1008" "3"]
IN: ["55" "12"]
IN: ["1007" "NZDUSD"]
IN: ["1008" "5"]
IN: ["55" "13"]
IN: ["1007" "CHFJPY"]
IN: ["1008" "3"]
IN: ["55" "14"]
IN: ["1007" "EURAUD"]
IN: ["1008" "5"]
IN: ["55" "15"]
IN: ["1007" "CADJPY"]
IN: ["1008" "3"]
IN: ["55" "16"]
IN: ["1007" "GBPAUD"]
IN: ["1008" "5"]
IN: ["55" "17"]
IN: ["1007" "EURCAD"]
IN: ["1008" "5"]
IN: ["55" "18"]
IN: ["1007" "AUDCAD"]
IN: ["1008" "5"]
IN: ["55" "19"]
IN: ["1007" "GBPCAD"]
IN: ["1008" "5"]
IN: ["55" "20"]
IN: ["1007" "AUDNZD"]
IN: ["1008" "5"]
IN: ["55" "21"]
IN: ["1007" "NZDJPY"]
IN: ["1008" "3"]
IN: ["55" "22"]
IN: ["1007" "USDNOK"]
IN: ["1008" "4"]
IN: ["55" "23"]
IN: ["1007" "AUDCHF"]
IN: ["1008" "5"]
IN: ["55" "24"]
IN: ["1007" "USDMXN"]
IN: ["1008" "4"]
IN: ["55" "25"]
IN: ["1007" "GBPNZD"]
IN: ["1008" "5"]
IN: ["55" "26"]
IN: ["1007" "EURNZD"]
IN: ["1008" "5"]
IN: ["55" "27"]
IN: ["1007" "CADCHF"]
IN: ["1008" "5"]
IN: ["55" "28"]
IN: ["1007" "USDSGD"]
IN: ["1008" "5"]
IN: ["55" "29"]
IN: ["1007" "USDSEK"]
IN: ["1008" "4"]
IN: ["55" "30"]
IN: ["1007" "NZDCAD"]
IN: ["1008" "5"]
IN: ["55" "31"]
IN: ["1007" "EURSEK"]
IN: ["1008" "4"]
IN: ["55" "32"]
IN: ["1007" "GBPSGD"]
IN: ["1008" "4"]
IN: ["55" "33"]
IN: ["1007" "EURNOK"]
IN: ["1008" "4"]
IN: ["55" "34"]
IN: ["1007" "EURHUF"]
IN: ["1008" "2"]
IN: ["55" "35"]
IN: ["1007" "USDPLN"]
IN: ["1008" "4"]
IN: ["55" "36"]
IN: ["1007" "USDDKK"]
IN: ["1008" "4"]
IN: ["55" "37"]
IN: ["1007" "GBPNOK"]
IN: ["1008" "4"]
IN: ["55" "38"]
IN: ["1007" "AUDDKK"]
IN: ["1008" "4"]
IN: ["55" "39"]
IN: ["1007" "NZDCHF"]
IN: ["1008" "5"]
IN: ["55" "40"]
IN: ["1007" "GBPCHF"]
IN: ["1008" "5"]
IN: ["55" "41"]
IN: ["1007" "XAUUSD"]
IN: ["1008" "2"]
IN: ["55" "42"]
IN: ["1007" "XAGUSD"]
IN: ["1008" "3"]
IN: ["55" "43"]
IN: ["1007" "USDTRY"]
IN: ["1008" "5"]
IN: ["55" "44"]
IN: ["1007" "NGAS"]
IN: ["1008" "3"]
IN: ["55" "45"]
IN: ["1007" "USDZAR"]
IN: ["1008" "5"]
IN: ["55" "46"]
IN: ["1007" "BTC/USD"]
IN: ["1008" "2"]
IN: ["55" "47"]
IN: ["1007" "ETH/USD"]
IN: ["1008" "2"]
IN: ["55" "48"]
IN: ["1007" "LTC/USD"]
IN: ["1008" "2"]
IN: ["55" "49"]
IN: ["1007" "XBN/USD"]
IN: ["1008" "2"]
IN: ["55" "50"]
IN: ["1007" "XRP/USD"]
IN: ["1008" "5"]
IN: ["55" "51"]
IN: ["1007" "EUR/CHF"]
IN: ["1008" "5"]
IN: ["55" "52"]
IN: ["1007" "AUD/JPY"]
IN: ["1008" "3"]
IN: ["55" "53"]
IN: ["1007" "NZD/USD"]
IN: ["1008" "5"]
IN: ["55" "54"]
IN: ["1007" "CHF/JPY"]
IN: ["1008" "3"]
IN: ["55" "55"]
IN: ["1007" "EUR/AUD"]
IN: ["1008" "5"]
IN: ["55" "56"]
IN: ["1007" "CAD/JPY"]
IN: ["1008" "3"]
IN: ["55" "57"]
IN: ["1007" "GBP/AUD"]
IN: ["1008" "5"]
IN: ["55" "58"]
IN: ["1007" "EUR/CAD"]
IN: ["1008" "5"]
IN: ["55" "59"]
IN: ["1007" "GBP/CAD"]
IN: ["1008" "5"]
IN: ["55" "60"]
IN: ["1007" "AUD/NZD"]
IN: ["1008" "5"]
IN: ["55" "61"]
IN: ["1007" "NZD/JPY"]
IN: ["1008" "3"]
IN: ["55" "62"]
IN: ["1007" "AUD/USD"]
IN: ["1008" "5"]
IN: ["55" "63"]
IN: ["1007" "AUD/CHF"]
IN: ["1008" "5"]
IN: ["55" "64"]
IN: ["1007" "GBP/NZD"]
IN: ["1008" "5"]
IN: ["55" "65"]
IN: ["1007" "EUR/NZD"]
IN: ["1008" "5"]
IN: ["55" "66"]
IN: ["1007" "USD/SEK"]
IN: ["1008" "5"]
IN: ["55" "67"]
IN: ["1007" "NZD/CAD"]
IN: ["1008" "5"]
IN: ["55" "68"]
IN: ["1007" "GBP/NOK"]
IN: ["1008" "5"]
IN: ["55" "69"]
IN: ["1007" "AUD/DKK"]
IN: ["1008" "4"]
IN: ["55" "70"]
IN: ["1007" "NZD/CHF"]
IN: ["1008" "5"]
IN: ["55" "71"]
IN: ["1007" "GBP/CHF"]
IN: ["1008" "5"]
IN: ["55" "72"]
IN: ["1007" "XAU/USD"]
IN: ["1008" "2"]
IN: ["55" "73"]
IN: ["1007" "EUR/JPY"]
IN: ["1008" "3"]
IN: ["55" "74"]
IN: ["1007" "EUR/GBP"]
IN: ["1008" "5"]
IN: ["55" "75"]
IN: ["1007" "CAD/CHF"]
IN: ["1008" "5"]
IN: ["55" "76"]
IN: ["1007" "USD/CHF"]
IN: ["1008" "5"]
IN: ["55" "77"]
IN: ["1007" "AUD/CAD"]
IN: ["1008" "5"]
IN: ["55" "78"]
IN: ["1007" "USD/SGD"]
IN: ["1008" "5"]
IN: ["55" "79"]
IN: ["1007" "GBP/USD"]
IN: ["1008" "5"]
IN: ["55" "80"]
IN: ["1007" "EUR/SEK"]
IN: ["1008" "5"]
IN: ["55" "81"]
IN: ["1007" "EUR/NOK"]
IN: ["1008" "5"]
IN: ["55" "82"]
IN: ["1007" "EUR/HUF"]
IN: ["1008" "3"]
IN: ["55" "83"]
IN: ["1007" "USD/JPY"]
IN: ["1008" "3"]
IN: ["55" "84"]
IN: ["1007" "GBP/JPY"]
IN: ["1008" "3"]
IN: ["55" "85"]
IN: ["1007" "USD/PLN"]
IN: ["1008" "5"]
IN: ["55" "86"]
IN: ["1007" "USD/DKK"]
IN: ["1008" "5"]
IN: ["55" "87"]
IN: ["1007" "XAG/USD"]
IN: ["1008" "3"]
IN: ["55" "88"]
IN: ["1007" "GBP/SGD"]
IN: ["1008" "5"]
IN: ["55" "89"]
IN: ["1007" "EUR/USD"]
IN: ["1008" "5"]
IN: ["55" "90"]
IN: ["1007" "USD/TRY"]
IN: ["1008" "5"]
IN: ["55" "91"]
IN: ["1007" "USD/CAD"]
IN: ["1008" "5"]
IN: ["55" "92"]
IN: ["1007" "USD/NOK"]
IN: ["1008" "5"]
IN: ["55" "93"]
IN: ["1007" "USD/ZAR"]
IN: ["1008" "5"]
IN: ["55" "94"]
IN: ["1007" "USD/MXN"]
IN: ["1008" "4"]
IN: ["55" "95"]
IN: ["1007" "Australia 200"]
IN: ["1008" "2"]
IN: ["55" "96"]
IN: ["1007" "Europe 50"]
IN: ["1008" "1"]
IN: ["55" "97"]
IN: ["1007" "France 40"]
IN: ["1008" "1"]
IN: ["55" "98"]
IN: ["1007" "Germany 30 (Mini)"]
IN: ["1008" "1"]
IN: ["55" "99"]
IN: ["1007" "Hong Kong 50"]
IN: ["1008" "2"]
IN: ["55" "100"]
IN: ["1007" "Japan 225"]
IN: ["1008" "0"]
IN: ["55" "101"]
IN: ["1007" "Spain 35"]
IN: ["1008" "1"]
IN: ["55" "102"]
IN: ["1007" "UK 100"]
IN: ["1008" "1"]
IN: ["55" "103"]
IN: ["1007" "US SPX 500 (Mini)"]
IN: ["1008" "1"]
IN: ["55" "104"]
IN: ["1007" "US Tech 100 (Mini)"]
IN: ["1008" "1"]
IN: ["55" "105"]
IN: ["1007" "Wall Street 30 (Mini)"]
IN: ["1008" "0"]
IN: ["55" "106"]
IN: ["1007" "XTI/USD"]
IN: ["1008" "2"]
IN: ["55" "107"]
IN: ["1007" "XBR/USD"]
IN: ["1008" "3"]
IN: ["10" "003"]
OUT: 8=FIX.4.4|9=107|35=x|49=demo.tradeviewmarkets.3193335|56=cServer|34=6|50=QUOTE|57=QUOTE|52=20250226-22:25:33|320=125|559=0|10=116|
IN: ["8" "FIX.4.4"]
IN: ["9" "2932"]
IN: ["35" "y"]
IN: ["34" "6"]
IN: ["49" "cServer"]
IN: ["50" "QUOTE"]
IN: ["52" "20250226-22:25:33.177"]
IN: ["56" "demo.tradeviewmarkets.3193335"]
IN: ["57" "QUOTE"]
IN: ["320" "125"]
IN: ["322" "responce:125"]
IN: ["560" "0"]
IN: ["146" "107"]
IN: ["55" "1"]
IN: ["1007" "EURUSD"]
IN: ["1008" "5"]
IN: ["55" "2"]
IN: ["1007" "GBPUSD"]
IN: ["1008" "5"]
IN: ["55" "3"]
IN: ["1007" "EURJPY"]
IN: ["1008" "3"]
IN: ["55" "4"]
IN: ["1007" "USDJPY"]
IN: ["1008" "3"]
IN: ["55" "5"]
IN: ["1007" "AUDUSD"]
IN: ["1008" "5"]
IN: ["55" "6"]
IN: ["1007" "USDCHF"]
IN: ["1008" "5"]
IN: ["55" "7"]
IN: ["1007" "GBPJPY"]
IN: ["1008" "3"]
IN: ["55" "8"]
IN: ["1007" "USDCAD"]
IN: ["1008" "5"]
IN: ["55" "9"]
IN: ["1007" "EURGBP"]
IN: ["1008" "5"]
IN: ["55" "10"]
IN: ["1007" "EURCHF"]
IN: ["1008" "5"]
IN: ["55" "11"]
IN: ["1007" "AUDJPY"]
IN: ["1008" "3"]
IN: ["55" "12"]
IN: ["1007" "NZDUSD"]
IN: ["1008" "5"]
IN: ["55" "13"]
IN: ["1007" "CHFJPY"]
IN: ["1008" "3"]
IN: ["55" "14"]
IN: ["1007" "EURAUD"]
IN: ["1008" "5"]
IN: ["55" "15"]
IN: ["1007" "CADJPY"]
IN: ["1008" "3"]
IN: ["55" "16"]
IN: ["1007" "GBPAUD"]
IN: ["1008" "5"]
IN: ["55" "17"]
IN: ["1007" "EURCAD"]
IN: ["1008" "5"]
IN: ["55" "18"]
IN: ["1007" "AUDCAD"]
IN: ["1008" "5"]
IN: ["55" "19"]
IN: ["1007" "GBPCAD"]
IN: ["1008" "5"]
IN: ["55" "20"]
IN: ["1007" "AUDNZD"]
IN: ["1008" "5"]
IN: ["55" "21"]
IN: ["1007" "NZDJPY"]
IN: ["1008" "3"]
IN: ["55" "22"]
IN: ["1007" "USDNOK"]
IN: ["1008" "4"]
IN: ["55" "23"]
IN: ["1007" "AUDCHF"]
IN: ["1008" "5"]
IN: ["55" "24"]
IN: ["1007" "USDMXN"]
IN: ["1008" "4"]
IN: ["55" "25"]
IN: ["1007" "GBPNZD"]
IN: ["1008" "5"]
IN: ["55" "26"]
IN: ["1007" "EURNZD"]
IN: ["1008" "5"]
IN: ["55" "27"]
IN: ["1007" "CADCHF"]
IN: ["1008" "5"]
IN: ["55" "28"]
IN: ["1007" "USDSGD"]
IN: ["1008" "5"]
IN: ["55" "29"]
IN: ["1007" "USDSEK"]
IN: ["1008" "4"]
IN: ["55" "30"]
IN: ["1007" "NZDCAD"]
IN: ["1008" "5"]
IN: ["55" "31"]
IN: ["1007" "EURSEK"]
IN: ["1008" "4"]
IN: ["55" "32"]
IN: ["1007" "GBPSGD"]
IN: ["1008" "4"]
IN: ["55" "33"]
IN: ["1007" "EURNOK"]
IN: ["1008" "4"]
IN: ["55" "34"]
IN: ["1007" "EURHUF"]
IN: ["1008" "2"]
IN: ["55" "35"]
IN: ["1007" "USDPLN"]
IN: ["1008" "4"]
IN: ["55" "36"]
IN: ["1007" "USDDKK"]
IN: ["1008" "4"]
IN: ["55" "37"]
IN: ["1007" "GBPNOK"]
IN: ["1008" "4"]
IN: ["55" "38"]
IN: ["1007" "AUDDKK"]
IN: ["1008" "4"]
IN: ["55" "39"]
IN: ["1007" "NZDCHF"]
IN: ["1008" "5"]
IN: ["55" "40"]
IN: ["1007" "GBPCHF"]
IN: ["1008" "5"]
IN: ["55" "41"]
IN: ["1007" "XAUUSD"]
IN: ["1008" "2"]
IN: ["55" "42"]
IN: ["1007" "XAGUSD"]
IN: ["1008" "3"]
IN: ["55" "43"]
IN: ["1007" "USDTRY"]
IN: ["1008" "5"]
IN: ["55" "44"]
IN: ["1007" "NGAS"]
IN: ["1008" "3"]
IN: ["55" "45"]
IN: ["1007" "USDZAR"]
IN: ["1008" "5"]
IN: ["55" "46"]
IN: ["1007" "BTC/USD"]
IN: ["1008" "2"]
IN: ["55" "47"]
IN: ["1007" "ETH/USD"]
IN: ["1008" "2"]
IN: ["55" "48"]
IN: ["1007" "LTC/USD"]
IN: ["1008" "2"]
IN: ["55" "49"]
IN: ["1007" "XBN/USD"]
IN: ["1008" "2"]
IN: ["55" "50"]
IN: ["1007" "XRP/USD"]
IN: ["1008" "5"]
IN: ["55" "51"]
IN: ["1007" "EUR/CHF"]
IN: ["1008" "5"]
IN: ["55" "52"]
IN: ["1007" "AUD/JPY"]
IN: ["1008" "3"]
IN: ["55" "53"]
IN: ["1007" "NZD/USD"]
IN: ["1008" "5"]
IN: ["55" "54"]
IN: ["1007" "CHF/JPY"]
IN: ["1008" "3"]
IN: ["55" "55"]
IN: ["1007" "EUR/AUD"]
IN: ["1008" "5"]
IN: ["55" "56"]
IN: ["1007" "CAD/JPY"]
IN: ["1008" "3"]
IN: ["55" "57"]
IN: ["1007" "GBP/AUD"]
IN: ["1008" "5"]
IN: ["55" "58"]
IN: ["1007" "EUR/CAD"]
IN: ["1008" "5"]
IN: ["55" "59"]
IN: ["1007" "GBP/CAD"]
IN: ["1008" "5"]
IN: ["55" "60"]
IN: ["1007" "AUD/NZD"]
IN: ["1008" "5"]
IN: ["55" "61"]
IN: ["1007" "NZD/JPY"]
IN: ["1008" "3"]
IN: ["55" "62"]
IN: ["1007" "AUD/USD"]
IN: ["1008" "5"]
IN: ["55" "63"]
IN: ["1007" "AUD/CHF"]
IN: ["1008" "5"]
IN: ["55" "64"]
IN: ["1007" "GBP/NZD"]
IN: ["1008" "5"]
IN: ["55" "65"]
IN: ["1007" "EUR/NZD"]
IN: ["1008" "5"]
IN: ["55" "66"]
IN: ["1007" "USD/SEK"]
IN: ["1008" "5"]
IN: ["55" "67"]
IN: ["1007" "NZD/CAD"]
IN: ["1008" "5"]
IN: ["55" "68"]
IN: ["1007" "GBP/NOK"]
IN: ["1008" "5"]
IN: ["55" "69"]
IN: ["1007" "AUD/DKK"]
IN: ["1008" "4"]
IN: ["55" "70"]
IN: ["1007" "NZD/CHF"]
IN: ["1008" "5"]
IN: ["55" "71"]
IN: ["1007" "GBP/CHF"]
IN: ["1008" "5"]
IN: ["55" "72"]
IN: ["1007" "XAU/USD"]
IN: ["1008" "2"]
IN: ["55" "73"]
IN: ["1007" "EUR/JPY"]
IN: ["1008" "3"]
IN: ["55" "74"]
IN: ["1007" "EUR/GBP"]
IN: ["1008" "5"]
IN: ["55" "75"]
IN: ["1007" "CAD/CHF"]
IN: ["1008" "5"]
IN: ["55" "76"]
IN: ["1007" "USD/CHF"]
IN: ["1008" "5"]
IN: ["55" "77"]
IN: ["1007" "AUD/CAD"]
IN: ["1008" "5"]
IN: ["55" "78"]
IN: ["1007" "USD/SGD"]
IN: ["1008" "5"]
IN: ["55" "79"]
IN: ["1007" "GBP/USD"]
IN: ["1008" "5"]
IN: ["55" "80"]
IN: ["1007" "EUR/SEK"]
IN: ["1008" "5"]
IN: ["55" "81"]
IN: ["1007" "EUR/NOK"]
IN: ["1008" "5"]
IN: ["55" "82"]
IN: ["1007" "EUR/HUF"]
IN: ["1008" "3"]
IN: ["55" "83"]
IN: ["1007" "USD/JPY"]
IN: ["1008" "3"]
IN: ["55" "84"]
IN: ["1007" "GBP/JPY"]
IN: ["1008" "3"]
IN: ["55" "85"]
IN: ["1007" "USD/PLN"]
IN: ["1008" "5"]
IN: ["55" "86"]
IN: ["1007" "USD/DKK"]
IN: ["1008" "5"]
IN: ["55" "87"]
IN: ["1007" "XAG/USD"]
IN: ["1008" "3"]
IN: ["55" "88"]
IN: ["1007" "GBP/SGD"]
IN: ["1008" "5"]
IN: ["55" "89"]
IN: ["1007" "EUR/USD"]
IN: ["1008" "5"]
IN: ["55" "90"]
IN: ["1007" "USD/TRY"]
IN: ["1008" "5"]
IN: ["55" "91"]
IN: ["1007" "USD/CAD"]
IN: ["1008" "5"]
IN: ["55" "92"]
IN: ["1007" "USD/NOK"]
IN: ["1008" "5"]
IN: ["55" "93"]
IN: ["1007" "USD/ZAR"]
IN: ["1008" "5"]
IN: ["55" "94"]
IN: ["1007" "USD/MXN"]
IN: ["1008" "4"]
IN: ["55" "95"]
IN: ["1007" "Australia 200"]
IN: ["1008" "2"]
IN: ["55" "96"]
IN: ["1007" "Europe 50"]
IN: ["1008" "1"]
IN: ["55" "97"]
IN: ["1007" "France 40"]
IN: ["1008" "1"]
IN: ["55" "98"]
IN: ["1007" "Germany 30 (Mini)"]
IN: ["1008" "1"]
IN: ["55" "99"]
IN: ["1007" "Hong Kong 50"]
IN: ["1008" "2"]
IN: ["55" "100"]
IN: ["1007" "Japan 225"]
IN: ["1008" "0"]
IN: ["55" "101"]
IN: ["1007" "Spain 35"]
IN: ["1008" "1"]
IN: ["55" "102"]
IN: ["1007" "UK 100"]
IN: ["1008" "1"]
IN: ["55" "103"]
IN: ["1007" "US SPX 500 (Mini)"]
IN: ["1008" "1"]
IN: ["55" "104"]
IN: ["1007" "US Tech 100 (Mini)"]
IN: ["1008" "1"]
IN: ["55" "105"]
IN: ["1007" "Wall Street 30 (Mini)"]
IN: ["1008" "0"]
IN: ["55" "106"]
IN: ["1007" "XTI/USD"]
IN: ["1008" "2"]
IN: ["55" "107"]
IN: ["1007" "XBR/USD"]
IN: ["1008" "3"]
IN: ["10" "001"]
CONNECTING
OUT: 8=FIX.4.4|9=137|35=A|49=demo.tradeviewmarkets.3193335|56=cServer|34=1|50=QUOTE|57=QUOTE|52=20250226-22:25:50|98=0|108=60|141=Y|553=3193335|554=123456789|10=006|
OUT: 8=FIX.4.4|9=107|35=x|49=demo.tradeviewmarkets.3193335|56=cServer|34=2|50=QUOTE|57=QUOTE|52=20250226-22:25:50|320=125|559=0|10=111|
OUT: 8=FIX.4.4|9=107|35=x|49=demo.tradeviewmarkets.3193335|56=cServer|34=3|50=QUOTE|57=QUOTE|52=20250226-22:25:53|320=125|559=0|10=115|
OUT: 8=FIX.4.4|9=107|35=x|49=demo.tradeviewmarkets.3193335|56=cServer|34=4|50=QUOTE|57=QUOTE|52=20250226-22:26:17|320=125|559=0|10=117|
CONNECTING
OUT: 8=FIX.4.4|9=137|35=A|49=demo.tradeviewmarkets.3193335|56=cServer|34=1|50=QUOTE|57=QUOTE|52=20250226-22:26:23|98=0|108=60|141=Y|553=3193335|554=123456789|10=007|
OUT: 8=FIX.4.4|9=107|35=x|49=demo.tradeviewmarkets.3193335|56=cServer|34=2|50=QUOTE|57=QUOTE|52=20250226-22:26:23|320=125|559=0|10=112|
OUT: 8=FIX.4.4|9=107|35=x|49=demo.tradeviewmarkets.3193335|56=cServer|34=3|50=QUOTE|57=QUOTE|52=20250226-22:26:26|320=125|559=0|10=116|
IN: ["8" "FIX.4.4"]
IN: ["9" "97"]
IN: ["35" "0"]
IN: ["34" "7"]
IN: ["49" "cServer"]
IN: ["50" "QUOTE"]
IN: ["52" "20250226-22:26:33.661"]
IN: ["56" "demo.tradeviewmarkets.3193335"]
IN: ["57" "QUOTE"]
IN: ["10" "085"]
OUT: 8=FIX.4.4|9=107|35=x|49=demo.tradeviewmarkets.3193335|56=cServer|34=4|50=QUOTE|57=QUOTE|52=20250226-22:26:47|320=125|559=0|10=120|
IN: ["8" "FIX.4.4"]
IN: ["9" "106"]
IN: ["35" "1"]
IN: ["34" "8"]
IN: ["49" "cServer"]
IN: ["50" "QUOTE"]
IN: ["52" "20250226-22:27:03.661"]
IN: ["56" "demo.tradeviewmarkets.3193335"]
IN: ["57" "QUOTE"]
IN: ["112" "TEST"]
IN: ["10" "142"]
OUT: 8=FIX.4.4|9=107|35=x|49=demo.tradeviewmarkets.3193335|56=cServer|34=5|50=QUOTE|57=QUOTE|52=20250226-22:27:08|320=125|559=0|10=119|
CONNECTING
OUT: 8=FIX.4.4|9=137|35=A|49=demo.tradeviewmarkets.3193335|56=cServer|34=1|50=QUOTE|57=QUOTE|52=20250226-22:27:11|98=0|108=60|141=Y|553=3193335|554=123456789|10=005|
OUT: 8=FIX.4.4|9=107|35=x|49=demo.tradeviewmarkets.3193335|56=cServer|34=2|50=QUOTE|57=QUOTE|52=20250226-22:27:11|320=125|559=0|10=110|
IN: ["8" "FIX.4.4"]
IN: ["9" "115"]
IN: ["35" "A"]
IN: ["34" "1"]
IN: ["49" "cServer"]
IN: ["50" "QUOTE"]
IN: ["52" "20250226-22:27:11.996"]
IN: ["56" "demo.tradeviewmarkets.3193335"]
IN: ["57" "QUOTE"]
IN: ["98" "0"]
IN: ["108" "60"]
IN: ["141" "Y"]
IN: ["10" "216"]
IN: ["8" "FIX.4.4"]
IN: ["9" "2932"]
IN: ["35" "y"]
IN: ["34" "2"]
IN: ["49" "cServer"]
IN: ["50" "QUOTE"]
IN: ["52" "20250226-22:27:11.997"]
IN: ["56" "demo.tradeviewmarkets.3193335"]
IN: ["57" "QUOTE"]
IN: ["320" "125"]
IN: ["322" "responce:125"]
IN: ["560" "0"]
IN: ["146" "107"]
IN: ["55" "1"]
IN: ["1007" "EURUSD"]
IN: ["1008" "5"]
IN: ["55" "2"]
IN: ["1007" "GBPUSD"]
IN: ["1008" "5"]
IN: ["55" "3"]
IN: ["1007" "EURJPY"]
IN: ["1008" "3"]
IN: ["55" "4"]
IN: ["1007" "USDJPY"]
IN: ["1008" "3"]
IN: ["55" "5"]
IN: ["1007" "AUDUSD"]
IN: ["1008" "5"]
IN: ["55" "6"]
IN: ["1007" "USDCHF"]
IN: ["1008" "5"]
IN: ["55" "7"]
IN: ["1007" "GBPJPY"]
IN: ["1008" "3"]
IN: ["55" "8"]
IN: ["1007" "USDCAD"]
IN: ["1008" "5"]
IN: ["55" "9"]
IN: ["1007" "EURGBP"]
IN: ["1008" "5"]
IN: ["55" "10"]
IN: ["1007" "EURCHF"]
IN: ["1008" "5"]
IN: ["55" "11"]
IN: ["1007" "AUDJPY"]
IN: ["1008" "3"]
IN: ["55" "12"]
IN: ["1007" "NZDUSD"]
IN: ["1008" "5"]
IN: ["55" "13"]
IN: ["1007" "CHFJPY"]
IN: ["1008" "3"]
IN: ["55" "14"]
IN: ["1007" "EURAUD"]
IN: ["1008" "5"]
IN: ["55" "15"]
IN: ["1007" "CADJPY"]
IN: ["1008" "3"]
IN: ["55" "16"]
IN: ["1007" "GBPAUD"]
IN: ["1008" "5"]
IN: ["55" "17"]
IN: ["1007" "EURCAD"]
IN: ["1008" "5"]
IN: ["55" "18"]
IN: ["1007" "AUDCAD"]
IN: ["1008" "5"]
IN: ["55" "19"]
IN: ["1007" "GBPCAD"]
IN: ["1008" "5"]
IN: ["55" "20"]
IN: ["1007" "AUDNZD"]
IN: ["1008" "5"]
IN: ["55" "21"]
IN: ["1007" "NZDJPY"]
IN: ["1008" "3"]
IN: ["55" "22"]
IN: ["1007" "USDNOK"]
IN: ["1008" "4"]
IN: ["55" "23"]
IN: ["1007" "AUDCHF"]
IN: ["1008" "5"]
IN: ["55" "24"]
IN: ["1007" "USDMXN"]
IN: ["1008" "4"]
IN: ["55" "25"]
IN: ["1007" "GBPNZD"]
IN: ["1008" "5"]
IN: ["55" "26"]
IN: ["1007" "EURNZD"]
IN: ["1008" "5"]
IN: ["55" "27"]
IN: ["1007" "CADCHF"]
IN: ["1008" "5"]
IN: ["55" "28"]
IN: ["1007" "USDSGD"]
IN: ["1008" "5"]
IN: ["55" "29"]
IN: ["1007" "USDSEK"]
IN: ["1008" "4"]
IN: ["55" "30"]
IN: ["1007" "NZDCAD"]
IN: ["1008" "5"]
IN: ["55" "31"]
IN: ["1007" "EURSEK"]
IN: ["1008" "4"]
IN: ["55" "32"]
IN: ["1007" "GBPSGD"]
IN: ["1008" "4"]
IN: ["55" "33"]
IN: ["1007" "EURNOK"]
IN: ["1008" "4"]
IN: ["55" "34"]
IN: ["1007" "EURHUF"]
IN: ["1008" "2"]
IN: ["55" "35"]
IN: ["1007" "USDPLN"]
IN: ["1008" "4"]
IN: ["55" "36"]
IN: ["1007" "USDDKK"]
IN: ["1008" "4"]
IN: ["55" "37"]
IN: ["1007" "GBPNOK"]
IN: ["1008" "4"]
IN: ["55" "38"]
IN: ["1007" "AUDDKK"]
IN: ["1008" "4"]
IN: ["55" "39"]
IN: ["1007" "NZDCHF"]
IN: ["1008" "5"]
IN: ["55" "40"]
IN: ["1007" "GBPCHF"]
IN: ["1008" "5"]
IN: ["55" "41"]
IN: ["1007" "XAUUSD"]
IN: ["1008" "2"]
IN: ["55" "42"]
IN: ["1007" "XAGUSD"]
IN: ["1008" "3"]
IN: ["55" "43"]
IN: ["1007" "USDTRY"]
IN: ["1008" "5"]
IN: ["55" "44"]
IN: ["1007" "NGAS"]
IN: ["1008" "3"]
IN: ["55" "45"]
IN: ["1007" "USDZAR"]
IN: ["1008" "5"]
IN: ["55" "46"]
IN: ["1007" "BTC/USD"]
IN: ["1008" "2"]
IN: ["55" "47"]
IN: ["1007" "ETH/USD"]
IN: ["1008" "2"]
IN: ["55" "48"]
IN: ["1007" "LTC/USD"]
IN: ["1008" "2"]
IN: ["55" "49"]
IN: ["1007" "XBN/USD"]
IN: ["1008" "2"]
IN: ["55" "50"]
IN: ["1007" "XRP/USD"]
IN: ["1008" "5"]
IN: ["55" "51"]
IN: ["1007" "EUR/CHF"]
IN: ["1008" "5"]
IN: ["55" "52"]
IN: ["1007" "AUD/JPY"]
IN: ["1008" "3"]
IN: ["55" "53"]
IN: ["1007" "NZD/USD"]
IN: ["1008" "5"]
IN: ["55" "54"]
IN: ["1007" "CHF/JPY"]
IN: ["1008" "3"]
IN: ["55" "55"]
IN: ["1007" "EUR/AUD"]
IN: ["1008" "5"]
IN: ["55" "56"]
IN: ["1007" "CAD/JPY"]
IN: ["1008" "3"]
IN: ["55" "57"]
IN: ["1007" "GBP/AUD"]
IN: ["1008" "5"]
IN: ["55" "58"]
IN: ["1007" "EUR/CAD"]
IN: ["1008" "5"]
IN: ["55" "59"]
IN: ["1007" "GBP/CAD"]
IN: ["1008" "5"]
IN: ["55" "60"]
IN: ["1007" "AUD/NZD"]
IN: ["1008" "5"]
IN: ["55" "61"]
IN: ["1007" "NZD/JPY"]
IN: ["1008" "3"]
IN: ["55" "62"]
IN: ["1007" "AUD/USD"]
IN: ["1008" "5"]
IN: ["55" "63"]
IN: ["1007" "AUD/CHF"]
IN: ["1008" "5"]
IN: ["55" "64"]
IN: ["1007" "GBP/NZD"]
IN: ["1008" "5"]
IN: ["55" "65"]
IN: ["1007" "EUR/NZD"]
IN: ["1008" "5"]
IN: ["55" "66"]
IN: ["1007" "USD/SEK"]
IN: ["1008" "5"]
IN: ["55" "67"]
IN: ["1007" "NZD/CAD"]
IN: ["1008" "5"]
IN: ["55" "68"]
IN: ["1007" "GBP/NOK"]
IN: ["1008" "5"]
IN: ["55" "69"]
IN: ["1007" "AUD/DKK"]
IN: ["1008" "4"]
IN: ["55" "70"]
IN: ["1007" "NZD/CHF"]
IN: ["1008" "5"]
IN: ["55" "71"]
IN: ["1007" "GBP/CHF"]
IN: ["1008" "5"]
IN: ["55" "72"]
IN: ["1007" "XAU/USD"]
IN: ["1008" "2"]
IN: ["55" "73"]
IN: ["1007" "EUR/JPY"]
IN: ["1008" "3"]
IN: ["55" "74"]
IN: ["1007" "EUR/GBP"]
IN: ["1008" "5"]
IN: ["55" "75"]
IN: ["1007" "CAD/CHF"]
IN: ["1008" "5"]
IN: ["55" "76"]
IN: ["1007" "USD/CHF"]
IN: ["1008" "5"]
IN: ["55" "77"]
IN: ["1007" "AUD/CAD"]
IN: ["1008" "5"]
IN: ["55" "78"]
IN: ["1007" "USD/SGD"]
IN: ["1008" "5"]
IN: ["55" "79"]
IN: ["1007" "GBP/USD"]
IN: ["1008" "5"]
IN: ["55" "80"]
IN: ["1007" "EUR/SEK"]
IN: ["1008" "5"]
IN: ["55" "81"]
IN: ["1007" "EUR/NOK"]
IN: ["1008" "5"]
IN: ["55" "82"]
IN: ["1007" "EUR/HUF"]
IN: ["1008" "3"]
IN: ["55" "83"]
IN: ["1007" "USD/JPY"]
IN: ["1008" "3"]
IN: ["55" "84"]
IN: ["1007" "GBP/JPY"]
IN: ["1008" "3"]
IN: ["55" "85"]
IN: ["1007" "USD/PLN"]
IN: ["1008" "5"]
IN: ["55" "86"]
IN: ["1007" "USD/DKK"]
IN: ["1008" "5"]
IN: ["55" "87"]
IN: ["1007" "XAG/USD"]
IN: ["1008" "3"]
IN: ["55" "88"]
IN: ["1007" "GBP/SGD"]
IN: ["1008" "5"]
IN: ["55" "89"]
IN: ["1007" "EUR/USD"]
IN: ["1008" "5"]
IN: ["55" "90"]
IN: ["1007" "USD/TRY"]
IN: ["1008" "5"]
IN: ["55" "91"]
IN: ["1007" "USD/CAD"]
IN: ["1008" "5"]
IN: ["55" "92"]
IN: ["1007" "USD/NOK"]
IN: ["1008" "5"]
IN: ["55" "93"]
IN: ["1007" "USD/ZAR"]
IN: ["1008" "5"]
IN: ["55" "94"]
IN: ["1007" "USD/MXN"]
IN: ["1008" "4"]
IN: ["55" "95"]
IN: ["1007" "Australia 200"]
IN: ["1008" "2"]
IN: ["55" "96"]
IN: ["1007" "Europe 50"]
IN: ["1008" "1"]
IN: ["55" "97"]
IN: ["1007" "France 40"]
IN: ["1008" "1"]
IN: ["55" "98"]
IN: ["1007" "Germany 30 (Mini)"]
IN: ["1008" "1"]
IN: ["55" "99"]
IN: ["1007" "Hong Kong 50"]
IN: ["1008" "2"]
IN: ["55" "100"]
IN: ["1007" "Japan 225"]
IN: ["1008" "0"]
IN: ["55" "101"]
IN: ["1007" "Spain 35"]
IN: ["1008" "1"]
IN: ["55" "102"]
IN: ["1007" "UK 100"]
IN: ["1008" "1"]
IN: ["55" "103"]
IN: ["1007" "US SPX 500 (Mini)"]
IN: ["1008" "1"]
IN: ["55" "104"]
IN: ["1007" "US Tech 100 (Mini)"]
IN: ["1008" "1"]
IN: ["55" "105"]
IN: ["1007" "Wall Street 30 (Mini)"]
IN: ["1008" "0"]
IN: ["55" "106"]
IN: ["1007" "XTI/USD"]
IN: ["1008" "2"]
IN: ["55" "107"]
IN: ["1007" "XBR/USD"]
IN: ["1008" "3"]
IN: ["10" "005"]
OUT: 8=FIX.4.4|9=107|35=x|49=demo.tradeviewmarkets.3193335|56=cServer|34=3|50=QUOTE|57=QUOTE|52=20250226-22:27:18|320=125|559=0|10=118|
IN: ["8" "FIX.4.4"]
IN: ["9" "2932"]
IN: ["35" "y"]
IN: ["34" "3"]
IN: ["49" "cServer"]
IN: ["50" "QUOTE"]
IN: ["52" "20250226-22:27:18.402"]
IN: ["56" "demo.tradeviewmarkets.3193335"]
IN: ["57" "QUOTE"]
IN: ["320" "125"]
IN: ["322" "responce:125"]
IN: ["560" "0"]
IN: ["146" "107"]
IN: ["55" "1"]
IN: ["1007" "EURUSD"]
IN: ["1008" "5"]
IN: ["55" "2"]
IN: ["1007" "GBPUSD"]
IN: ["1008" "5"]
IN: ["55" "3"]
IN: ["1007" "EURJPY"]
IN: ["1008" "3"]
IN: ["55" "4"]
IN: ["1007" "USDJPY"]
IN: ["1008" "3"]
IN: ["55" "5"]
IN: ["1007" "AUDUSD"]
IN: ["1008" "5"]
IN: ["55" "6"]
IN: ["1007" "USDCHF"]
IN: ["1008" "5"]
IN: ["55" "7"]
IN: ["1007" "GBPJPY"]
IN: ["1008" "3"]
IN: ["55" "8"]
IN: ["1007" "USDCAD"]
IN: ["1008" "5"]
IN: ["55" "9"]
IN: ["1007" "EURGBP"]
IN: ["1008" "5"]
IN: ["55" "10"]
IN: ["1007" "EURCHF"]
IN: ["1008" "5"]
IN: ["55" "11"]
IN: ["1007" "AUDJPY"]
IN: ["1008" "3"]
IN: ["55" "12"]
IN: ["1007" "NZDUSD"]
IN: ["1008" "5"]
IN: ["55" "13"]
IN: ["1007" "CHFJPY"]
IN: ["1008" "3"]
IN: ["55" "14"]
IN: ["1007" "EURAUD"]
IN: ["1008" "5"]
IN: ["55" "15"]
IN: ["1007" "CADJPY"]
IN: ["1008" "3"]
IN: ["55" "16"]
IN: ["1007" "GBPAUD"]
IN: ["1008" "5"]
IN: ["55" "17"]
IN: ["1007" "EURCAD"]
IN: ["1008" "5"]
IN: ["55" "18"]
IN: ["1007" "AUDCAD"]
IN: ["1008" "5"]
IN: ["55" "19"]
IN: ["1007" "GBPCAD"]
IN: ["1008" "5"]
IN: ["55" "20"]
IN: ["1007" "AUDNZD"]
IN: ["1008" "5"]
IN: ["55" "21"]
IN: ["1007" "NZDJPY"]
IN: ["1008" "3"]
IN: ["55" "22"]
IN: ["1007" "USDNOK"]
IN: ["1008" "4"]
IN: ["55" "23"]
IN: ["1007" "AUDCHF"]
IN: ["1008" "5"]
IN: ["55" "24"]
IN: ["1007" "USDMXN"]
IN: ["1008" "4"]
IN: ["55" "25"]
IN: ["1007" "GBPNZD"]
IN: ["1008" "5"]
IN: ["55" "26"]
IN: ["1007" "EURNZD"]
IN: ["1008" "5"]
IN: ["55" "27"]
IN: ["1007" "CADCHF"]
IN: ["1008" "5"]
IN: ["55" "28"]
IN: ["1007" "USDSGD"]
IN: ["1008" "5"]
IN: ["55" "29"]
IN: ["1007" "USDSEK"]
IN: ["1008" "4"]
IN: ["55" "30"]
IN: ["1007" "NZDCAD"]
IN: ["1008" "5"]
IN: ["55" "31"]
IN: ["1007" "EURSEK"]
IN: ["1008" "4"]
IN: ["55" "32"]
IN: ["1007" "GBPSGD"]
IN: ["1008" "4"]
IN: ["55" "33"]
IN: ["1007" "EURNOK"]
IN: ["1008" "4"]
IN: ["55" "34"]
IN: ["1007" "EURHUF"]
IN: ["1008" "2"]
IN: ["55" "35"]
IN: ["1007" "USDPLN"]
IN: ["1008" "4"]
IN: ["55" "36"]
IN: ["1007" "USDDKK"]
IN: ["1008" "4"]
IN: ["55" "37"]
IN: ["1007" "GBPNOK"]
IN: ["1008" "4"]
IN: ["55" "38"]
IN: ["1007" "AUDDKK"]
IN: ["1008" "4"]
IN: ["55" "39"]
IN: ["1007" "NZDCHF"]
IN: ["1008" "5"]
IN: ["55" "40"]
IN: ["1007" "GBPCHF"]
IN: ["1008" "5"]
IN: ["55" "41"]
IN: ["1007" "XAUUSD"]
IN: ["1008" "2"]
IN: ["55" "42"]
IN: ["1007" "XAGUSD"]
IN: ["1008" "3"]
IN: ["55" "43"]
IN: ["1007" "USDTRY"]
IN: ["1008" "5"]
IN: ["55" "44"]
IN: ["1007" "NGAS"]
IN: ["1008" "3"]
IN: ["55" "45"]
IN: ["1007" "USDZAR"]
IN: ["1008" "5"]
IN: ["55" "46"]
IN: ["1007" "BTC/USD"]
IN: ["1008" "2"]
IN: ["55" "47"]
IN: ["1007" "ETH/USD"]
IN: ["1008" "2"]
IN: ["55" "48"]
IN: ["1007" "LTC/USD"]
IN: ["1008" "2"]
IN: ["55" "49"]
IN: ["1007" "XBN/USD"]
IN: ["1008" "2"]
IN: ["55" "50"]
IN: ["1007" "XRP/USD"]
IN: ["1008" "5"]
IN: ["55" "51"]
IN: ["1007" "EUR/CHF"]
IN: ["1008" "5"]
IN: ["55" "52"]
IN: ["1007" "AUD/JPY"]
IN: ["1008" "3"]
IN: ["55" "53"]
IN: ["1007" "NZD/USD"]
IN: ["1008" "5"]
IN: ["55" "54"]
IN: ["1007" "CHF/JPY"]
IN: ["1008" "3"]
IN: ["55" "55"]
IN: ["1007" "EUR/AUD"]
IN: ["1008" "5"]
IN: ["55" "56"]
IN: ["1007" "CAD/JPY"]
IN: ["1008" "3"]
IN: ["55" "57"]
IN: ["1007" "GBP/AUD"]
IN: ["1008" "5"]
IN: ["55" "58"]
IN: ["1007" "EUR/CAD"]
IN: ["1008" "5"]
IN: ["55" "59"]
IN: ["1007" "GBP/CAD"]
IN: ["1008" "5"]
IN: ["55" "60"]
IN: ["1007" "AUD/NZD"]
IN: ["1008" "5"]
IN: ["55" "61"]
IN: ["1007" "NZD/JPY"]
IN: ["1008" "3"]
IN: ["55" "62"]
IN: ["1007" "AUD/USD"]
IN: ["1008" "5"]
IN: ["55" "63"]
IN: ["1007" "AUD/CHF"]
IN: ["1008" "5"]
IN: ["55" "64"]
IN: ["1007" "GBP/NZD"]
IN: ["1008" "5"]
IN: ["55" "65"]
IN: ["1007" "EUR/NZD"]
IN: ["1008" "5"]
IN: ["55" "66"]
IN: ["1007" "USD/SEK"]
IN: ["1008" "5"]
IN: ["55" "67"]
IN: ["1007" "NZD/CAD"]
IN: ["1008" "5"]
IN: ["55" "68"]
IN: ["1007" "GBP/NOK"]
IN: ["1008" "5"]
IN: ["55" "69"]
IN: ["1007" "AUD/DKK"]
IN: ["1008" "4"]
IN: ["55" "70"]
IN: ["1007" "NZD/CHF"]
IN: ["1008" "5"]
IN: ["55" "71"]
IN: ["1007" "GBP/CHF"]
IN: ["1008" "5"]
IN: ["55" "72"]
IN: ["1007" "XAU/USD"]
IN: ["1008" "2"]
IN: ["55" "73"]
IN: ["1007" "EUR/JPY"]
IN: ["1008" "3"]
IN: ["55" "74"]
IN: ["1007" "EUR/GBP"]
IN: ["1008" "5"]
IN: ["55" "75"]
IN: ["1007" "CAD/CHF"]
IN: ["1008" "5"]
IN: ["55" "76"]
IN: ["1007" "USD/CHF"]
IN: ["1008" "5"]
IN: ["55" "77"]
IN: ["1007" "AUD/CAD"]
IN: ["1008" "5"]
IN: ["55" "78"]
IN: ["1007" "USD/SGD"]
IN: ["1008" "5"]
IN: ["55" "79"]
IN: ["1007" "GBP/USD"]
IN: ["1008" "5"]
IN: ["55" "80"]
IN: ["1007" "EUR/SEK"]
IN: ["1008" "5"]
IN: ["55" "81"]
IN: ["1007" "EUR/NOK"]
IN: ["1008" "5"]
IN: ["55" "82"]
IN: ["1007" "EUR/HUF"]
IN: ["1008" "3"]
IN: ["55" "83"]
IN: ["1007" "USD/JPY"]
IN: ["1008" "3"]
IN: ["55" "84"]
IN: ["1007" "GBP/JPY"]
IN: ["1008" "3"]
IN: ["55" "85"]
IN: ["1007" "USD/PLN"]
IN: ["1008" "5"]
IN: ["55" "86"]
IN: ["1007" "USD/DKK"]
IN: ["1008" "5"]
IN: ["55" "87"]
IN: ["1007" "XAG/USD"]
IN: ["1008" "3"]
IN: ["55" "88"]
IN: ["1007" "GBP/SGD"]
IN: ["1008" "5"]
IN: ["55" "89"]
IN: ["1007" "EUR/USD"]
IN: ["1008" "5"]
IN: ["55" "90"]
IN: ["1007" "USD/TRY"]
IN: ["1008" "5"]
IN: ["55" "91"]
IN: ["1007" "USD/CAD"]
IN: ["1008" "5"]
IN: ["55" "92"]
IN: ["1007" "USD/NOK"]
IN: ["1008" "5"]
IN: ["55" "93"]
IN: ["1007" "USD/ZAR"]
IN: ["1008" "5"]
IN: ["55" "94"]
IN: ["1007" "USD/MXN"]
IN: ["1008" "4"]
IN: ["55" "95"]
IN: ["1007" "Australia 200"]
IN: ["1008" "2"]
IN: ["55" "96"]
IN: ["1007" "Europe 50"]
IN: ["1008" "1"]
IN: ["55" "97"]
IN: ["1007" "France 40"]
IN: ["1008" "1"]
IN: ["55" "98"]
IN: ["1007" "Germany 30 (Mini)"]
IN: ["1008" "1"]
IN: ["55" "99"]
IN: ["1007" "Hong Kong 50"]
IN: ["1008" "2"]
IN: ["55" "100"]
IN: ["1007" "Japan 225"]
IN: ["1008" "0"]
IN: ["55" "101"]
IN: ["1007" "Spain 35"]
IN: ["1008" "1"]
IN: ["55" "102"]
IN: ["1007" "UK 100"]
IN: ["1008" "1"]
IN: ["55" "103"]
IN: ["1007" "US SPX 500 (Mini)"]
IN: ["1008" "1"]
IN: ["55" "104"]
IN: ["1007" "US Tech 100 (Mini)"]
IN: ["1008" "1"]
IN: ["55" "105"]
IN: ["1007" "Wall Street 30 (Mini)"]
IN: ["1008" "0"]
IN: ["55" "106"]
IN: ["1007" "XTI/USD"]
IN: ["1008" "2"]
IN: ["55" "107"]
IN: ["1007" "XBR/USD"]
IN: ["1008" "3"]
IN: ["10" "250"]
OUT: 8=FIX.4.4|9=107|35=x|49=demo.tradeviewmarkets.3193335|56=cServer|34=4|50=QUOTE|57=QUOTE|52=20250226-22:27:20|320=125|559=0|10=112|
IN: ["8" "FIX.4.4"]
IN: ["9" "2932"]
IN: ["35" "y"]
IN: ["34" "4"]
IN: ["49" "cServer"]
IN: ["50" "QUOTE"]
IN: ["52" "20250226-22:27:20.483"]
IN: ["56" "demo.tradeviewmarkets.3193335"]
IN: ["57" "QUOTE"]
IN: ["320" "125"]
IN: ["322" "responce:125"]
IN: ["560" "0"]
IN: ["146" "107"]
IN: ["55" "1"]
IN: ["1007" "EURUSD"]
IN: ["1008" "5"]
IN: ["55" "2"]
IN: ["1007" "GBPUSD"]
IN: ["1008" "5"]
IN: ["55" "3"]
IN: ["1007" "EURJPY"]
IN: ["1008" "3"]
IN: ["55" "4"]
IN: ["1007" "USDJPY"]
IN: ["1008" "3"]
IN: ["55" "5"]
IN: ["1007" "AUDUSD"]
IN: ["1008" "5"]
IN: ["55" "6"]
IN: ["1007" "USDCHF"]
IN: ["1008" "5"]
IN: ["55" "7"]
IN: ["1007" "GBPJPY"]
IN: ["1008" "3"]
IN: ["55" "8"]
IN: ["1007" "USDCAD"]
IN: ["1008" "5"]
IN: ["55" "9"]
IN: ["1007" "EURGBP"]
IN: ["1008" "5"]
IN: ["55" "10"]
IN: ["1007" "EURCHF"]
IN: ["1008" "5"]
IN: ["55" "11"]
IN: ["1007" "AUDJPY"]
IN: ["1008" "3"]
IN: ["55" "12"]
IN: ["1007" "NZDUSD"]
IN: ["1008" "5"]
IN: ["55" "13"]
IN: ["1007" "CHFJPY"]
IN: ["1008" "3"]
IN: ["55" "14"]
IN: ["1007" "EURAUD"]
IN: ["1008" "5"]
IN: ["55" "15"]
IN: ["1007" "CADJPY"]
IN: ["1008" "3"]
IN: ["55" "16"]
IN: ["1007" "GBPAUD"]
IN: ["1008" "5"]
IN: ["55" "17"]
IN: ["1007" "EURCAD"]
IN: ["1008" "5"]
IN: ["55" "18"]
IN: ["1007" "AUDCAD"]
IN: ["1008" "5"]
IN: ["55" "19"]
IN: ["1007" "GBPCAD"]
IN: ["1008" "5"]
IN: ["55" "20"]
IN: ["1007" "AUDNZD"]
IN: ["1008" "5"]
IN: ["55" "21"]
IN: ["1007" "NZDJPY"]
IN: ["1008" "3"]
IN: ["55" "22"]
IN: ["1007" "USDNOK"]
IN: ["1008" "4"]
IN: ["55" "23"]
IN: ["1007" "AUDCHF"]
IN: ["1008" "5"]
IN: ["55" "24"]
IN: ["1007" "USDMXN"]
IN: ["1008" "4"]
IN: ["55" "25"]
IN: ["1007" "GBPNZD"]
IN: ["1008" "5"]
IN: ["55" "26"]
IN: ["1007" "EURNZD"]
IN: ["1008" "5"]
IN: ["55" "27"]
IN: ["1007" "CADCHF"]
IN: ["1008" "5"]
IN: ["55" "28"]
IN: ["1007" "USDSGD"]
IN: ["1008" "5"]
IN: ["55" "29"]
IN: ["1007" "USDSEK"]
IN: ["1008" "4"]
IN: ["55" "30"]
IN: ["1007" "NZDCAD"]
IN: ["1008" "5"]
IN: ["55" "31"]
IN: ["1007" "EURSEK"]
IN: ["1008" "4"]
IN: ["55" "32"]
IN: ["1007" "GBPSGD"]
IN: ["1008" "4"]
IN: ["55" "33"]
IN: ["1007" "EURNOK"]
IN: ["1008" "4"]
IN: ["55" "34"]
IN: ["1007" "EURHUF"]
IN: ["1008" "2"]
IN: ["55" "35"]
IN: ["1007" "USDPLN"]
IN: ["1008" "4"]
IN: ["55" "36"]
IN: ["1007" "USDDKK"]
IN: ["1008" "4"]
IN: ["55" "37"]
IN: ["1007" "GBPNOK"]
IN: ["1008" "4"]
IN: ["55" "38"]
IN: ["1007" "AUDDKK"]
IN: ["1008" "4"]
IN: ["55" "39"]
IN: ["1007" "NZDCHF"]
IN: ["1008" "5"]
IN: ["55" "40"]
IN: ["1007" "GBPCHF"]
IN: ["1008" "5"]
IN: ["55" "41"]
IN: ["1007" "XAUUSD"]
IN: ["1008" "2"]
IN: ["55" "42"]
IN: ["1007" "XAGUSD"]
IN: ["1008" "3"]
IN: ["55" "43"]
IN: ["1007" "USDTRY"]
IN: ["1008" "5"]
IN: ["55" "44"]
IN: ["1007" "NGAS"]
IN: ["1008" "3"]
IN: ["55" "45"]
IN: ["1007" "USDZAR"]
IN: ["1008" "5"]
IN: ["55" "46"]
IN: ["1007" "BTC/USD"]
IN: ["1008" "2"]
IN: ["55" "47"]
IN: ["1007" "ETH/USD"]
IN: ["1008" "2"]
IN: ["55" "48"]
IN: ["1007" "LTC/USD"]
IN: ["1008" "2"]
IN: ["55" "49"]
IN: ["1007" "XBN/USD"]
IN: ["1008" "2"]
IN: ["55" "50"]
IN: ["1007" "XRP/USD"]
IN: ["1008" "5"]
IN: ["55" "51"]
IN: ["1007" "EUR/CHF"]
IN: ["1008" "5"]
IN: ["55" "52"]
IN: ["1007" "AUD/JPY"]
IN: ["1008" "3"]
IN: ["55" "53"]
IN: ["1007" "NZD/USD"]
IN: ["1008" "5"]
IN: ["55" "54"]
IN: ["1007" "CHF/JPY"]
IN: ["1008" "3"]
IN: ["55" "55"]
IN: ["1007" "EUR/AUD"]
IN: ["1008" "5"]
IN: ["55" "56"]
IN: ["1007" "CAD/JPY"]
IN: ["1008" "3"]
IN: ["55" "57"]
IN: ["1007" "GBP/AUD"]
IN: ["1008" "5"]
IN: ["55" "58"]
IN: ["1007" "EUR/CAD"]
IN: ["1008" "5"]
IN: ["55" "59"]
IN: ["1007" "GBP/CAD"]
IN: ["1008" "5"]
IN: ["55" "60"]
IN: ["1007" "AUD/NZD"]
IN: ["1008" "5"]
IN: ["55" "61"]
IN: ["1007" "NZD/JPY"]
IN: ["1008" "3"]
IN: ["55" "62"]
IN: ["1007" "AUD/USD"]
IN: ["1008" "5"]
IN: ["55" "63"]
IN: ["1007" "AUD/CHF"]
IN: ["1008" "5"]
IN: ["55" "64"]
IN: ["1007" "GBP/NZD"]
IN: ["1008" "5"]
IN: ["55" "65"]
IN: ["1007" "EUR/NZD"]
IN: ["1008" "5"]
IN: ["55" "66"]
IN: ["1007" "USD/SEK"]
IN: ["1008" "5"]
IN: ["55" "67"]
IN: ["1007" "NZD/CAD"]
IN: ["1008" "5"]
IN: ["55" "68"]
IN: ["1007" "GBP/NOK"]
IN: ["1008" "5"]
IN: ["55" "69"]
IN: ["1007" "AUD/DKK"]
IN: ["1008" "4"]
IN: ["55" "70"]
IN: ["1007" "NZD/CHF"]
IN: ["1008" "5"]
IN: ["55" "71"]
IN: ["1007" "GBP/CHF"]
IN: ["1008" "5"]
IN: ["55" "72"]
IN: ["1007" "XAU/USD"]
IN: ["1008" "2"]
IN: ["55" "73"]
IN: ["1007" "EUR/JPY"]
IN: ["1008" "3"]
IN: ["55" "74"]
IN: ["1007" "EUR/GBP"]
IN: ["1008" "5"]
IN: ["55" "75"]
IN: ["1007" "CAD/CHF"]
IN: ["1008" "5"]
IN: ["55" "76"]
IN: ["1007" "USD/CHF"]
IN: ["1008" "5"]
IN: ["55" "77"]
IN: ["1007" "AUD/CAD"]
IN: ["1008" "5"]
IN: ["55" "78"]
IN: ["1007" "USD/SGD"]
IN: ["1008" "5"]
IN: ["55" "79"]
IN: ["1007" "GBP/USD"]
IN: ["1008" "5"]
IN: ["55" "80"]
IN: ["1007" "EUR/SEK"]
IN: ["1008" "5"]
IN: ["55" "81"]
IN: ["1007" "EUR/NOK"]
IN: ["1008" "5"]
IN: ["55" "82"]
IN: ["1007" "EUR/HUF"]
IN: ["1008" "3"]
IN: ["55" "83"]
IN: ["1007" "USD/JPY"]
IN: ["1008" "3"]
IN: ["55" "84"]
IN: ["1007" "GBP/JPY"]
IN: ["1008" "3"]
IN: ["55" "85"]
IN: ["1007" "USD/PLN"]
IN: ["1008" "5"]
IN: ["55" "86"]
IN: ["1007" "USD/DKK"]
IN: ["1008" "5"]
IN: ["55" "87"]
IN: ["1007" "XAG/USD"]
IN: ["1008" "3"]
IN: ["55" "88"]
IN: ["1007" "GBP/SGD"]
IN: ["1008" "5"]
IN: ["55" "89"]
IN: ["1007" "EUR/USD"]
IN: ["1008" "5"]
IN: ["55" "90"]
IN: ["1007" "USD/TRY"]
IN: ["1008" "5"]
IN: ["55" "91"]
IN: ["1007" "USD/CAD"]
IN: ["1008" "5"]
IN: ["55" "92"]
IN: ["1007" "USD/NOK"]
IN: ["1008" "5"]
IN: ["55" "93"]
IN: ["1007" "USD/ZAR"]
IN: ["1008" "5"]
IN: ["55" "94"]
IN: ["1007" "USD/MXN"]
IN: ["1008" "4"]
IN: ["55" "95"]
IN: ["1007" "Australia 200"]
IN: ["1008" "2"]
IN: ["55" "96"]
IN: ["1007" "Europe 50"]
IN: ["1008" "1"]
IN: ["55" "97"]
IN: ["1007" "France 40"]
IN: ["1008" "1"]
IN: ["55" "98"]
IN: ["1007" "Germany 30 (Mini)"]
IN: ["1008" "1"]
IN: ["55" "99"]
IN: ["1007" "Hong Kong 50"]
IN: ["1008" "2"]
IN: ["55" "100"]
IN: ["1007" "Japan 225"]
IN: ["1008" "0"]
IN: ["55" "101"]
IN: ["1007" "Spain 35"]
IN: ["1008" "1"]
IN: ["55" "102"]
IN: ["1007" "UK 100"]
IN: ["1008" "1"]
IN: ["55" "103"]
IN: ["1007" "US SPX 500 (Mini)"]
IN: ["1008" "1"]
IN: ["55" "104"]
IN: ["1007" "US Tech 100 (Mini)"]
IN: ["1008" "1"]
IN: ["55" "105"]
IN: ["1007" "Wall Street 30 (Mini)"]
IN: ["1008" "0"]
IN: ["55" "106"]
IN: ["1007" "XTI/USD"]
IN: ["1008" "2"]
IN: ["55" "107"]
IN: ["1007" "XBR/USD"]
IN: ["1008" "3"]
IN: ["10" "253"]
OUT: 8=FIX.4.4|9=107|35=x|49=demo.tradeviewmarkets.3193335|56=cServer|34=5|50=QUOTE|57=QUOTE|52=20250226-22:27:22|320=125|559=0|10=115|
IN: ["8" "FIX.4.4"]
IN: ["9" "2932"]
IN: ["35" "y"]
IN: ["34" "5"]
IN: ["49" "cServer"]
IN: ["50" "QUOTE"]
IN: ["52" "20250226-22:27:22.506"]
IN: ["56" "demo.tradeviewmarkets.3193335"]
IN: ["57" "QUOTE"]
IN: ["320" "125"]
IN: ["322" "responce:125"]
IN: ["560" "0"]
IN: ["146" "107"]
IN: ["55" "1"]
IN: ["1007" "EURUSD"]
IN: ["1008" "5"]
IN: ["55" "2"]
IN: ["1007" "GBPUSD"]
IN: ["1008" "5"]
IN: ["55" "3"]
IN: ["1007" "EURJPY"]
IN: ["1008" "3"]
IN: ["55" "4"]
IN: ["1007" "USDJPY"]
IN: ["1008" "3"]
IN: ["55" "5"]
IN: ["1007" "AUDUSD"]
IN: ["1008" "5"]
IN: ["55" "6"]
IN: ["1007" "USDCHF"]
IN: ["1008" "5"]
IN: ["55" "7"]
IN: ["1007" "GBPJPY"]
IN: ["1008" "3"]
IN: ["55" "8"]
IN: ["1007" "USDCAD"]
IN: ["1008" "5"]
IN: ["55" "9"]
IN: ["1007" "EURGBP"]
IN: ["1008" "5"]
IN: ["55" "10"]
IN: ["1007" "EURCHF"]
IN: ["1008" "5"]
IN: ["55" "11"]
IN: ["1007" "AUDJPY"]
IN: ["1008" "3"]
IN: ["55" "12"]
IN: ["1007" "NZDUSD"]
IN: ["1008" "5"]
IN: ["55" "13"]
IN: ["1007" "CHFJPY"]
IN: ["1008" "3"]
IN: ["55" "14"]
IN: ["1007" "EURAUD"]
IN: ["1008" "5"]
IN: ["55" "15"]
IN: ["1007" "CADJPY"]
IN: ["1008" "3"]
IN: ["55" "16"]
IN: ["1007" "GBPAUD"]
IN: ["1008" "5"]
IN: ["55" "17"]
IN: ["1007" "EURCAD"]
IN: ["1008" "5"]
IN: ["55" "18"]
IN: ["1007" "AUDCAD"]
IN: ["1008" "5"]
IN: ["55" "19"]
IN: ["1007" "GBPCAD"]
IN: ["1008" "5"]
IN: ["55" "20"]
IN: ["1007" "AUDNZD"]
IN: ["1008" "5"]
IN: ["55" "21"]
IN: ["1007" "NZDJPY"]
IN: ["1008" "3"]
IN: ["55" "22"]
IN: ["1007" "USDNOK"]
IN: ["1008" "4"]
IN: ["55" "23"]
IN: ["1007" "AUDCHF"]
IN: ["1008" "5"]
IN: ["55" "24"]
IN: ["1007" "USDMXN"]
IN: ["1008" "4"]
IN: ["55" "25"]
IN: ["1007" "GBPNZD"]
IN: ["1008" "5"]
IN: ["55" "26"]
IN: ["1007" "EURNZD"]
IN: ["1008" "5"]
IN: ["55" "27"]
IN: ["1007" "CADCHF"]
IN: ["1008" "5"]
IN: ["55" "28"]
IN: ["1007" "USDSGD"]
IN: ["1008" "5"]
IN: ["55" "29"]
IN: ["1007" "USDSEK"]
IN: ["1008" "4"]
IN: ["55" "30"]
IN: ["1007" "NZDCAD"]
IN: ["1008" "5"]
IN: ["55" "31"]
IN: ["1007" "EURSEK"]
IN: ["1008" "4"]
IN: ["55" "32"]
IN: ["1007" "GBPSGD"]
IN: ["1008" "4"]
IN: ["55" "33"]
IN: ["1007" "EURNOK"]
IN: ["1008" "4"]
IN: ["55" "34"]
IN: ["1007" "EURHUF"]
IN: ["1008" "2"]
IN: ["55" "35"]
IN: ["1007" "USDPLN"]
IN: ["1008" "4"]
IN: ["55" "36"]
IN: ["1007" "USDDKK"]
IN: ["1008" "4"]
IN: ["55" "37"]
IN: ["1007" "GBPNOK"]
IN: ["1008" "4"]
IN: ["55" "38"]
IN: ["1007" "AUDDKK"]
IN: ["1008" "4"]
IN: ["55" "39"]
IN: ["1007" "NZDCHF"]
IN: ["1008" "5"]
IN: ["55" "40"]
IN: ["1007" "GBPCHF"]
IN: ["1008" "5"]
IN: ["55" "41"]
IN: ["1007" "XAUUSD"]
IN: ["1008" "2"]
IN: ["55" "42"]
IN: ["1007" "XAGUSD"]
IN: ["1008" "3"]
IN: ["55" "43"]
IN: ["1007" "USDTRY"]
IN: ["1008" "5"]
IN: ["55" "44"]
IN: ["1007" "NGAS"]
IN: ["1008" "3"]
IN: ["55" "45"]
IN: ["1007" "USDZAR"]
IN: ["1008" "5"]
IN: ["55" "46"]
IN: ["1007" "BTC/USD"]
IN: ["1008" "2"]
IN: ["55" "47"]
IN: ["1007" "ETH/USD"]
IN: ["1008" "2"]
IN: ["55" "48"]
IN: ["1007" "LTC/USD"]
IN: ["1008" "2"]
IN: ["55" "49"]
IN: ["1007" "XBN/USD"]
IN: ["1008" "2"]
IN: ["55" "50"]
IN: ["1007" "XRP/USD"]
IN: ["1008" "5"]
IN: ["55" "51"]
IN: ["1007" "EUR/CHF"]
IN: ["1008" "5"]
IN: ["55" "52"]
IN: ["1007" "AUD/JPY"]
IN: ["1008" "3"]
IN: ["55" "53"]
IN: ["1007" "NZD/USD"]
IN: ["1008" "5"]
IN: ["55" "54"]
IN: ["1007" "CHF/JPY"]
IN: ["1008" "3"]
IN: ["55" "55"]
IN: ["1007" "EUR/AUD"]
IN: ["1008" "5"]
IN: ["55" "56"]
IN: ["1007" "CAD/JPY"]
IN: ["1008" "3"]
IN: ["55" "57"]
IN: ["1007" "GBP/AUD"]
IN: ["1008" "5"]
IN: ["55" "58"]
IN: ["1007" "EUR/CAD"]
IN: ["1008" "5"]
IN: ["55" "59"]
IN: ["1007" "GBP/CAD"]
IN: ["1008" "5"]
IN: ["55" "60"]
IN: ["1007" "AUD/NZD"]
IN: ["1008" "5"]
IN: ["55" "61"]
IN: ["1007" "NZD/JPY"]
IN: ["1008" "3"]
IN: ["55" "62"]
IN: ["1007" "AUD/USD"]
IN: ["1008" "5"]
IN: ["55" "63"]
IN: ["1007" "AUD/CHF"]
IN: ["1008" "5"]
IN: ["55" "64"]
IN: ["1007" "GBP/NZD"]
IN: ["1008" "5"]
IN: ["55" "65"]
IN: ["1007" "EUR/NZD"]
IN: ["1008" "5"]
IN: ["55" "66"]
IN: ["1007" "USD/SEK"]
IN: ["1008" "5"]
IN: ["55" "67"]
IN: ["1007" "NZD/CAD"]
IN: ["1008" "5"]
IN: ["55" "68"]
IN: ["1007" "GBP/NOK"]
IN: ["1008" "5"]
IN: ["55" "69"]
IN: ["1007" "AUD/DKK"]
IN: ["1008" "4"]
IN: ["55" "70"]
IN: ["1007" "NZD/CHF"]
IN: ["1008" "5"]
IN: ["55" "71"]
IN: ["1007" "GBP/CHF"]
IN: ["1008" "5"]
IN: ["55" "72"]
IN: ["1007" "XAU/USD"]
IN: ["1008" "2"]
IN: ["55" "73"]
IN: ["1007" "EUR/JPY"]
IN: ["1008" "3"]
IN: ["55" "74"]
IN: ["1007" "EUR/GBP"]
IN: ["1008" "5"]
IN: ["55" "75"]
IN: ["1007" "CAD/CHF"]
IN: ["1008" "5"]
IN: ["55" "76"]
IN: ["1007" "USD/CHF"]
IN: ["1008" "5"]
IN: ["55" "77"]
IN: ["1007" "AUD/CAD"]
IN: ["1008" "5"]
IN: ["55" "78"]
IN: ["1007" "USD/SGD"]
IN: ["1008" "5"]
IN: ["55" "79"]
IN: ["1007" "GBP/USD"]
IN: ["1008" "5"]
IN: ["55" "80"]
IN: ["1007" "EUR/SEK"]
IN: ["1008" "5"]
IN: ["55" "81"]
IN: ["1007" "EUR/NOK"]
IN: ["1008" "5"]
IN: ["55" "82"]
IN: ["1007" "EUR/HUF"]
IN: ["1008" "3"]
IN: ["55" "83"]
IN: ["1007" "USD/JPY"]
IN: ["1008" "3"]
IN: ["55" "84"]
IN: ["1007" "GBP/JPY"]
IN: ["1008" "3"]
IN: ["55" "85"]
IN: ["1007" "USD/PLN"]
IN: ["1008" "5"]
IN: ["55" "86"]
IN: ["1007" "USD/DKK"]
IN: ["1008" "5"]
IN: ["55" "87"]
IN: ["1007" "XAG/USD"]
IN: ["1008" "3"]
IN: ["55" "88"]
IN: ["1007" "GBP/SGD"]
IN: ["1008" "5"]
IN: ["55" "89"]
IN: ["1007" "EUR/USD"]
IN: ["1008" "5"]
IN: ["55" "90"]
IN: ["1007" "USD/TRY"]
IN: ["1008" "5"]
IN: ["55" "91"]
IN: ["1007" "USD/CAD"]
IN: ["1008" "5"]
IN: ["55" "92"]
IN: ["1007" "USD/NOK"]
IN: ["1008" "5"]
IN: ["55" "93"]
IN: ["1007" "USD/ZAR"]
IN: ["1008" "5"]
IN: ["55" "94"]
IN: ["1007" "USD/MXN"]
IN: ["1008" "4"]
IN: ["55" "95"]
IN: ["1007" "Australia 200"]
IN: ["1008" "2"]
IN: ["55" "96"]
IN: ["1007" "Europe 50"]
IN: ["1008" "1"]
IN: ["55" "97"]
IN: ["1007" "France 40"]
IN: ["1008" "1"]
IN: ["55" "98"]
IN: ["1007" "Germany 30 (Mini)"]
IN: ["1008" "1"]
IN: ["55" "99"]
IN: ["1007" "Hong Kong 50"]
IN: ["1008" "2"]
IN: ["55" "100"]
IN: ["1007" "Japan 225"]
IN: ["1008" "0"]
IN: ["55" "101"]
IN: ["1007" "Spain 35"]
IN: ["1008" "1"]
IN: ["55" "102"]
IN: ["1007" "UK 100"]
IN: ["1008" "1"]
IN: ["55" "103"]
IN: ["1007" "US SPX 500 (Mini)"]
IN: ["1008" "1"]
IN: ["55" "104"]
IN: ["1007" "US Tech 100 (Mini)"]
IN: ["1008" "1"]
IN: ["55" "105"]
IN: ["1007" "Wall Street 30 (Mini)"]
IN: ["1008" "0"]
IN: ["55" "106"]
IN: ["1007" "XTI/USD"]
IN: ["1008" "2"]
IN: ["55" "107"]
IN: ["1007" "XBR/USD"]
IN: ["1008" "3"]
IN: ["10" "252"]
OUT: 8=FIX.4.4|9=107|35=x|49=demo.tradeviewmarkets.3193335|56=cServer|34=6|50=QUOTE|57=QUOTE|52=20250226-22:27:23|320=125|559=0|10=117|
IN: ["8" "FIX.4.4"]
IN: ["9" "2932"]
IN: ["35" "y"]
IN: ["34" "6"]
IN: ["49" "cServer"]
IN: ["50" "QUOTE"]
IN: ["52" "20250226-22:27:23.794"]
IN: ["56" "demo.tradeviewmarkets.3193335"]
IN: ["57" "QUOTE"]
IN: ["320" "125"]
IN: ["322" "responce:125"]
IN: ["560" "0"]
IN: ["146" "107"]
IN: ["55" "1"]
IN: ["1007" "EURUSD"]
IN: ["1008" "5"]
IN: ["55" "2"]
IN: ["1007" "GBPUSD"]
IN: ["1008" "5"]
IN: ["55" "3"]
IN: ["1007" "EURJPY"]
IN: ["1008" "3"]
IN: ["55" "4"]
IN: ["1007" "USDJPY"]
IN: ["1008" "3"]
IN: ["55" "5"]
IN: ["1007" "AUDUSD"]
IN: ["1008" "5"]
IN: ["55" "6"]
IN: ["1007" "USDCHF"]
IN: ["1008" "5"]
IN: ["55" "7"]
IN: ["1007" "GBPJPY"]
IN: ["1008" "3"]
IN: ["55" "8"]
IN: ["1007" "USDCAD"]
IN: ["1008" "5"]
IN: ["55" "9"]
IN: ["1007" "EURGBP"]
IN: ["1008" "5"]
IN: ["55" "10"]
IN: ["1007" "EURCHF"]
IN: ["1008" "5"]
IN: ["55" "11"]
IN: ["1007" "AUDJPY"]
IN: ["1008" "3"]
IN: ["55" "12"]
IN: ["1007" "NZDUSD"]
IN: ["1008" "5"]
IN: ["55" "13"]
IN: ["1007" "CHFJPY"]
IN: ["1008" "3"]
IN: ["55" "14"]
IN: ["1007" "EURAUD"]
IN: ["1008" "5"]
IN: ["55" "15"]
IN: ["1007" "CADJPY"]
IN: ["1008" "3"]
IN: ["55" "16"]
IN: ["1007" "GBPAUD"]
IN: ["1008" "5"]
IN: ["55" "17"]
IN: ["1007" "EURCAD"]
IN: ["1008" "5"]
IN: ["55" "18"]
IN: ["1007" "AUDCAD"]
IN: ["1008" "5"]
IN: ["55" "19"]
IN: ["1007" "GBPCAD"]
IN: ["1008" "5"]
IN: ["55" "20"]
IN: ["1007" "AUDNZD"]
IN: ["1008" "5"]
IN: ["55" "21"]
IN: ["1007" "NZDJPY"]
IN: ["1008" "3"]
IN: ["55" "22"]
IN: ["1007" "USDNOK"]
IN: ["1008" "4"]
IN: ["55" "23"]
IN: ["1007" "AUDCHF"]
IN: ["1008" "5"]
IN: ["55" "24"]
IN: ["1007" "USDMXN"]
IN: ["1008" "4"]
IN: ["55" "25"]
IN: ["1007" "GBPNZD"]
IN: ["1008" "5"]
IN: ["55" "26"]
IN: ["1007" "EURNZD"]
IN: ["1008" "5"]
IN: ["55" "27"]
IN: ["1007" "CADCHF"]
IN: ["1008" "5"]
IN: ["55" "28"]
IN: ["1007" "USDSGD"]
IN: ["1008" "5"]
IN: ["55" "29"]
IN: ["1007" "USDSEK"]
IN: ["1008" "4"]
IN: ["55" "30"]
IN: ["1007" "NZDCAD"]
IN: ["1008" "5"]
IN: ["55" "31"]
IN: ["1007" "EURSEK"]
IN: ["1008" "4"]
IN: ["55" "32"]
IN: ["1007" "GBPSGD"]
IN: ["1008" "4"]
IN: ["55" "33"]
IN: ["1007" "EURNOK"]
IN: ["1008" "4"]
IN: ["55" "34"]
IN: ["1007" "EURHUF"]
IN: ["1008" "2"]
IN: ["55" "35"]
IN: ["1007" "USDPLN"]
IN: ["1008" "4"]
IN: ["55" "36"]
IN: ["1007" "USDDKK"]
IN: ["1008" "4"]
IN: ["55" "37"]
IN: ["1007" "GBPNOK"]
IN: ["1008" "4"]
IN: ["55" "38"]
IN: ["1007" "AUDDKK"]
IN: ["1008" "4"]
IN: ["55" "39"]
IN: ["1007" "NZDCHF"]
IN: ["1008" "5"]
IN: ["55" "40"]
IN: ["1007" "GBPCHF"]
IN: ["1008" "5"]
IN: ["55" "41"]
IN: ["1007" "XAUUSD"]
IN: ["1008" "2"]
IN: ["55" "42"]
IN: ["1007" "XAGUSD"]
IN: ["1008" "3"]
IN: ["55" "43"]
IN: ["1007" "USDTRY"]
IN: ["1008" "5"]
IN: ["55" "44"]
IN: ["1007" "NGAS"]
IN: ["1008" "3"]
IN: ["55" "45"]
IN: ["1007" "USDZAR"]
IN: ["1008" "5"]
IN: ["55" "46"]
IN: ["1007" "BTC/USD"]
IN: ["1008" "2"]
IN: ["55" "47"]
IN: ["1007" "ETH/USD"]
IN: ["1008" "2"]
IN: ["55" "48"]
IN: ["1007" "LTC/USD"]
IN: ["1008" "2"]
IN: ["55" "49"]
IN: ["1007" "XBN/USD"]
IN: ["1008" "2"]
IN: ["55" "50"]
IN: ["1007" "XRP/USD"]
IN: ["1008" "5"]
IN: ["55" "51"]
IN: ["1007" "EUR/CHF"]
IN: ["1008" "5"]
IN: ["55" "52"]
IN: ["1007" "AUD/JPY"]
IN: ["1008" "3"]
IN: ["55" "53"]
IN: ["1007" "NZD/USD"]
IN: ["1008" "5"]
IN: ["55" "54"]
IN: ["1007" "CHF/JPY"]
IN: ["1008" "3"]
IN: ["55" "55"]
IN: ["1007" "EUR/AUD"]
IN: ["1008" "5"]
IN: ["55" "56"]
IN: ["1007" "CAD/JPY"]
IN: ["1008" "3"]
IN: ["55" "57"]
IN: ["1007" "GBP/AUD"]
IN: ["1008" "5"]
IN: ["55" "58"]
IN: ["1007" "EUR/CAD"]
IN: ["1008" "5"]
IN: ["55" "59"]
IN: ["1007" "GBP/CAD"]
IN: ["1008" "5"]
IN: ["55" "60"]
IN: ["1007" "AUD/NZD"]
IN: ["1008" "5"]
IN: ["55" "61"]
IN: ["1007" "NZD/JPY"]
IN: ["1008" "3"]
IN: ["55" "62"]
IN: ["1007" "AUD/USD"]
IN: ["1008" "5"]
IN: ["55" "63"]
IN: ["1007" "AUD/CHF"]
IN: ["1008" "5"]
IN: ["55" "64"]
IN: ["1007" "GBP/NZD"]
IN: ["1008" "5"]
IN: ["55" "65"]
IN: ["1007" "EUR/NZD"]
IN: ["1008" "5"]
IN: ["55" "66"]
IN: ["1007" "USD/SEK"]
IN: ["1008" "5"]
IN: ["55" "67"]
IN: ["1007" "NZD/CAD"]
IN: ["1008" "5"]
IN: ["55" "68"]
IN: ["1007" "GBP/NOK"]
IN: ["1008" "5"]
IN: ["55" "69"]
IN: ["1007" "AUD/DKK"]
IN: ["1008" "4"]
IN: ["55" "70"]
IN: ["1007" "NZD/CHF"]
IN: ["1008" "5"]
IN: ["55" "71"]
IN: ["1007" "GBP/CHF"]
IN: ["1008" "5"]
IN: ["55" "72"]
IN: ["1007" "XAU/USD"]
IN: ["1008" "2"]
IN: ["55" "73"]
IN: ["1007" "EUR/JPY"]
IN: ["1008" "3"]
IN: ["55" "74"]
IN: ["1007" "EUR/GBP"]
IN: ["1008" "5"]
IN: ["55" "75"]
IN: ["1007" "CAD/CHF"]
IN: ["1008" "5"]
IN: ["55" "76"]
IN: ["1007" "USD/CHF"]
IN: ["1008" "5"]
IN: ["55" "77"]
IN: ["1007" "AUD/CAD"]
IN: ["1008" "5"]
IN: ["55" "78"]
IN: ["1007" "USD/SGD"]
IN: ["1008" "5"]
IN: ["55" "79"]
IN: ["1007" "GBP/USD"]
IN: ["1008" "5"]
IN: ["55" "80"]
IN: ["1007" "EUR/SEK"]
IN: ["1008" "5"]
IN: ["55" "81"]
IN: ["1007" "EUR/NOK"]
IN: ["1008" "5"]
IN: ["55" "82"]
IN: ["1007" "EUR/HUF"]
IN: ["1008" "3"]
IN: ["55" "83"]
IN: ["1007" "USD/JPY"]
IN: ["1008" "3"]
IN: ["55" "84"]
IN: ["1007" "GBP/JPY"]
IN: ["1008" "3"]
IN: ["55" "85"]
IN: ["1007" "USD/PLN"]
IN: ["1008" "5"]
IN: ["55" "86"]
IN: ["1007" "USD/DKK"]
IN: ["1008" "5"]
IN: ["55" "87"]
IN: ["1007" "XAG/USD"]
IN: ["1008" "3"]
IN: ["55" "88"]
IN: ["1007" "GBP/SGD"]
IN: ["1008" "5"]
IN: ["55" "89"]
IN: ["1007" "EUR/USD"]
IN: ["1008" "5"]
IN: ["55" "90"]
IN: ["1007" "USD/TRY"]
IN: ["1008" "5"]
IN: ["55" "91"]
IN: ["1007" "USD/CAD"]
IN: ["1008" "5"]
IN: ["55" "92"]
IN: ["1007" "USD/NOK"]
IN: ["1008" "5"]
IN: ["55" "93"]
IN: ["1007" "USD/ZAR"]
IN: ["1008" "5"]
IN: ["55" "94"]
IN: ["1007" "USD/MXN"]
IN: ["1008" "4"]
IN: ["55" "95"]
IN: ["1007" "Australia 200"]
IN: ["1008" "2"]
IN: ["55" "96"]
IN: ["1007" "Europe 50"]
IN: ["1008" "1"]
IN: ["55" "97"]
IN: ["1007" "France 40"]
IN: ["1008" "1"]
IN: ["55" "98"]
IN: ["1007" "Germany 30 (Mini)"]
IN: ["1008" "1"]
IN: ["55" "99"]
IN: ["1007" "Hong Kong 50"]
IN: ["1008" "2"]
IN: ["55" "100"]
IN: ["1007" "Japan 225"]
IN: ["1008" "0"]
IN: ["55" "101"]
IN: ["1007" "Spain 35"]
IN: ["1008" "1"]
IN: ["55" "102"]
IN: ["1007" "UK 100"]
IN: ["1008" "1"]
IN: ["55" "103"]
IN: ["1007" "US SPX 500 (Mini)"]
IN: ["1008" "1"]
IN: ["55" "104"]
IN: ["1007" "US Tech 100 (Mini)"]
IN: ["1008" "1"]
IN: ["55" "105"]
IN: ["1007" "Wall Street 30 (Mini)"]
IN: ["1008" "0"]
IN: ["55" "106"]
IN: ["1007" "XTI/USD"]
IN: ["1008" "2"]
IN: ["55" "107"]
IN: ["1007" "XBR/USD"]
IN: ["1008" "3"]
IN: ["10" "007"]
OUT: 8=FIX.4.4|9=107|35=x|49=demo.tradeviewmarkets.3193335|56=cServer|34=7|50=QUOTE|57=QUOTE|52=20250226-22:27:25|320=125|559=0|10=120|
IN: ["8" "FIX.4.4"]
IN: ["9" "2932"]
IN: ["35" "y"]
IN: ["34" "7"]
IN: ["49" "cServer"]
IN: ["50" "QUOTE"]
IN: ["52" "20250226-22:27:25.658"]
IN: ["56" "demo.tradeviewmarkets.3193335"]
IN: ["57" "QUOTE"]
IN: ["320" "125"]
IN: ["322" "responce:125"]
IN: ["560" "0"]
IN: ["146" "107"]
IN: ["55" "1"]
IN: ["1007" "EURUSD"]
IN: ["1008" "5"]
IN: ["55" "2"]
IN: ["1007" "GBPUSD"]
IN: ["1008" "5"]
IN: ["55" "3"]
IN: ["1007" "EURJPY"]
IN: ["1008" "3"]
IN: ["55" "4"]
IN: ["1007" "USDJPY"]
IN: ["1008" "3"]
IN: ["55" "5"]
IN: ["1007" "AUDUSD"]
IN: ["1008" "5"]
IN: ["55" "6"]
IN: ["1007" "USDCHF"]
IN: ["1008" "5"]
IN: ["55" "7"]
IN: ["1007" "GBPJPY"]
IN: ["1008" "3"]
IN: ["55" "8"]
IN: ["1007" "USDCAD"]
IN: ["1008" "5"]
IN: ["55" "9"]
IN: ["1007" "EURGBP"]
IN: ["1008" "5"]
IN: ["55" "10"]
IN: ["1007" "EURCHF"]
IN: ["1008" "5"]
IN: ["55" "11"]
IN: ["1007" "AUDJPY"]
IN: ["1008" "3"]
IN: ["55" "12"]
IN: ["1007" "NZDUSD"]
IN: ["1008" "5"]
IN: ["55" "13"]
IN: ["1007" "CHFJPY"]
IN: ["1008" "3"]
IN: ["55" "14"]
IN: ["1007" "EURAUD"]
IN: ["1008" "5"]
IN: ["55" "15"]
IN: ["1007" "CADJPY"]
IN: ["1008" "3"]
IN: ["55" "16"]
IN: ["1007" "GBPAUD"]
IN: ["1008" "5"]
IN: ["55" "17"]
IN: ["1007" "EURCAD"]
IN: ["1008" "5"]
IN: ["55" "18"]
IN: ["1007" "AUDCAD"]
IN: ["1008" "5"]
IN: ["55" "19"]
IN: ["1007" "GBPCAD"]
IN: ["1008" "5"]
IN: ["55" "20"]
IN: ["1007" "AUDNZD"]
IN: ["1008" "5"]
IN: ["55" "21"]
IN: ["1007" "NZDJPY"]
IN: ["1008" "3"]
IN: ["55" "22"]
IN: ["1007" "USDNOK"]
IN: ["1008" "4"]
IN: ["55" "23"]
IN: ["1007" "AUDCHF"]
IN: ["1008" "5"]
IN: ["55" "24"]
IN: ["1007" "USDMXN"]
IN: ["1008" "4"]
IN: ["55" "25"]
IN: ["1007" "GBPNZD"]
IN: ["1008" "5"]
IN: ["55" "26"]
IN: ["1007" "EURNZD"]
IN: ["1008" "5"]
IN: ["55" "27"]
IN: ["1007" "CADCHF"]
IN: ["1008" "5"]
IN: ["55" "28"]
IN: ["1007" "USDSGD"]
IN: ["1008" "5"]
IN: ["55" "29"]
IN: ["1007" "USDSEK"]
IN: ["1008" "4"]
IN: ["55" "30"]
IN: ["1007" "NZDCAD"]
IN: ["1008" "5"]
IN: ["55" "31"]
IN: ["1007" "EURSEK"]
IN: ["1008" "4"]
IN: ["55" "32"]
IN: ["1007" "GBPSGD"]
IN: ["1008" "4"]
IN: ["55" "33"]
IN: ["1007" "EURNOK"]
IN: ["1008" "4"]
IN: ["55" "34"]
IN: ["1007" "EURHUF"]
IN: ["1008" "2"]
IN: ["55" "35"]
IN: ["1007" "USDPLN"]
IN: ["1008" "4"]
IN: ["55" "36"]
IN: ["1007" "USDDKK"]
IN: ["1008" "4"]
IN: ["55" "37"]
IN: ["1007" "GBPNOK"]
IN: ["1008" "4"]
IN: ["55" "38"]
IN: ["1007" "AUDDKK"]
IN: ["1008" "4"]
IN: ["55" "39"]
IN: ["1007" "NZDCHF"]
IN: ["1008" "5"]
IN: ["55" "40"]
IN: ["1007" "GBPCHF"]
IN: ["1008" "5"]
IN: ["55" "41"]
IN: ["1007" "XAUUSD"]
IN: ["1008" "2"]
IN: ["55" "42"]
IN: ["1007" "XAGUSD"]
IN: ["1008" "3"]
IN: ["55" "43"]
IN: ["1007" "USDTRY"]
IN: ["1008" "5"]
IN: ["55" "44"]
IN: ["1007" "NGAS"]
IN: ["1008" "3"]
IN: ["55" "45"]
IN: ["1007" "USDZAR"]
IN: ["1008" "5"]
IN: ["55" "46"]
IN: ["1007" "BTC/USD"]
IN: ["1008" "2"]
IN: ["55" "47"]
IN: ["1007" "ETH/USD"]
IN: ["1008" "2"]
IN: ["55" "48"]
IN: ["1007" "LTC/USD"]
IN: ["1008" "2"]
IN: ["55" "49"]
IN: ["1007" "XBN/USD"]
IN: ["1008" "2"]
IN: ["55" "50"]
IN: ["1007" "XRP/USD"]
IN: ["1008" "5"]
IN: ["55" "51"]
IN: ["1007" "EUR/CHF"]
IN: ["1008" "5"]
IN: ["55" "52"]
IN: ["1007" "AUD/JPY"]
IN: ["1008" "3"]
IN: ["55" "53"]
IN: ["1007" "NZD/USD"]
IN: ["1008" "5"]
IN: ["55" "54"]
IN: ["1007" "CHF/JPY"]
IN: ["1008" "3"]
IN: ["55" "55"]
IN: ["1007" "EUR/AUD"]
IN: ["1008" "5"]
IN: ["55" "56"]
IN: ["1007" "CAD/JPY"]
IN: ["1008" "3"]
IN: ["55" "57"]
IN: ["1007" "GBP/AUD"]
IN: ["1008" "5"]
IN: ["55" "58"]
IN: ["1007" "EUR/CAD"]
IN: ["1008" "5"]
IN: ["55" "59"]
IN: ["1007" "GBP/CAD"]
IN: ["1008" "5"]
IN: ["55" "60"]
IN: ["1007" "AUD/NZD"]
IN: ["1008" "5"]
IN: ["55" "61"]
IN: ["1007" "NZD/JPY"]
IN: ["1008" "3"]
IN: ["55" "62"]
IN: ["1007" "AUD/USD"]
IN: ["1008" "5"]
IN: ["55" "63"]
IN: ["1007" "AUD/CHF"]
IN: ["1008" "5"]
IN: ["55" "64"]
IN: ["1007" "GBP/NZD"]
IN: ["1008" "5"]
IN: ["55" "65"]
IN: ["1007" "EUR/NZD"]
IN: ["1008" "5"]
IN: ["55" "66"]
IN: ["1007" "USD/SEK"]
IN: ["1008" "5"]
IN: ["55" "67"]
IN: ["1007" "NZD/CAD"]
IN: ["1008" "5"]
IN: ["55" "68"]
IN: ["1007" "GBP/NOK"]
IN: ["1008" "5"]
IN: ["55" "69"]
IN: ["1007" "AUD/DKK"]
IN: ["1008" "4"]
IN: ["55" "70"]
IN: ["1007" "NZD/CHF"]
IN: ["1008" "5"]
IN: ["55" "71"]
IN: ["1007" "GBP/CHF"]
IN: ["1008" "5"]
IN: ["55" "72"]
IN: ["1007" "XAU/USD"]
IN: ["1008" "2"]
IN: ["55" "73"]
IN: ["1007" "EUR/JPY"]
IN: ["1008" "3"]
IN: ["55" "74"]
IN: ["1007" "EUR/GBP"]
IN: ["1008" "5"]
IN: ["55" "75"]
IN: ["1007" "CAD/CHF"]
IN: ["1008" "5"]
IN: ["55" "76"]
IN: ["1007" "USD/CHF"]
IN: ["1008" "5"]
IN: ["55" "77"]
IN: ["1007" "AUD/CAD"]
IN: ["1008" "5"]
IN: ["55" "78"]
IN: ["1007" "USD/SGD"]
IN: ["1008" "5"]
IN: ["55" "79"]
IN: ["1007" "GBP/USD"]
IN: ["1008" "5"]
IN: ["55" "80"]
IN: ["1007" "EUR/SEK"]
IN: ["1008" "5"]
IN: ["55" "81"]
IN: ["1007" "EUR/NOK"]
IN: ["1008" "5"]
IN: ["55" "82"]
IN: ["1007" "EUR/HUF"]
IN: ["1008" "3"]
IN: ["55" "83"]
IN: ["1007" "USD/JPY"]
IN: ["1008" "3"]
IN: ["55" "84"]
IN: ["1007" "GBP/JPY"]
IN: ["1008" "3"]
IN: ["55" "85"]
IN: ["1007" "USD/PLN"]
IN: ["1008" "5"]
IN: ["55" "86"]
IN: ["1007" "USD/DKK"]
IN: ["1008" "5"]
IN: ["55" "87"]
IN: ["1007" "XAG/USD"]
IN: ["1008" "3"]
IN: ["55" "88"]
IN: ["1007" "GBP/SGD"]
IN: ["1008" "5"]
IN: ["55" "89"]
IN: ["1007" "EUR/USD"]
IN: ["1008" "5"]
IN: ["55" "90"]
IN: ["1007" "USD/TRY"]
IN: ["1008" "5"]
IN: ["55" "91"]
IN: ["1007" "USD/CAD"]
IN: ["1008" "5"]
IN: ["55" "92"]
IN: ["1007" "USD/NOK"]
IN: ["1008" "5"]
IN: ["55" "93"]
IN: ["1007" "USD/ZAR"]
IN: ["1008" "5"]
IN: ["55" "94"]
IN: ["1007" "USD/MXN"]
IN: ["1008" "4"]
IN: ["55" "95"]
IN: ["1007" "Australia 200"]
IN: ["1008" "2"]
IN: ["55" "96"]
IN: ["1007" "Europe 50"]
IN: ["1008" "1"]
IN: ["55" "97"]
IN: ["1007" "France 40"]
IN: ["1008" "1"]
IN: ["55" "98"]
IN: ["1007" "Germany 30 (Mini)"]
IN: ["1008" "1"]
IN: ["55" "99"]
IN: ["1007" "Hong Kong 50"]
IN: ["1008" "2"]
IN: ["55" "100"]
IN: ["1007" "Japan 225"]
IN: ["1008" "0"]
IN: ["55" "101"]
IN: ["1007" "Spain 35"]
IN: ["1008" "1"]
IN: ["55" "102"]
IN: ["1007" "UK 100"]
IN: ["1008" "1"]
IN: ["55" "103"]
IN: ["1007" "US SPX 500 (Mini)"]
IN: ["1008" "1"]
IN: ["55" "104"]
IN: ["1007" "US Tech 100 (Mini)"]
IN: ["1008" "1"]
IN: ["55" "105"]
IN: ["1007" "Wall Street 30 (Mini)"]
IN: ["1008" "0"]
IN: ["55" "106"]
IN: ["1007" "XTI/USD"]
IN: ["1008" "2"]
IN: ["55" "107"]
IN: ["1007" "XBR/USD"]
IN: ["1008" "3"]
IN: ["10" "009"]
OUT: 8=FIX.4.4|9=107|35=x|49=demo.tradeviewmarkets.3193335|56=cServer|34=8|50=QUOTE|57=QUOTE|52=20250226-22:27:27|320=125|559=0|10=123|
IN: ["8" "FIX.4.4"]
IN: ["9" "2932"]
IN: ["35" "y"]
IN: ["34" "8"]
IN: ["49" "cServer"]
IN: ["50" "QUOTE"]
IN: ["52" "20250226-22:27:27.502"]
IN: ["56" "demo.tradeviewmarkets.3193335"]
IN: ["57" "QUOTE"]
IN: ["320" "125"]
IN: ["322" "responce:125"]
IN: ["560" "0"]
IN: ["146" "107"]
IN: ["55" "1"]
IN: ["1007" "EURUSD"]
IN: ["1008" "5"]
IN: ["55" "2"]
IN: ["1007" "GBPUSD"]
IN: ["1008" "5"]
IN: ["55" "3"]
IN: ["1007" "EURJPY"]
IN: ["1008" "3"]
IN: ["55" "4"]
IN: ["1007" "USDJPY"]
IN: ["1008" "3"]
IN: ["55" "5"]
IN: ["1007" "AUDUSD"]
IN: ["1008" "5"]
IN: ["55" "6"]
IN: ["1007" "USDCHF"]
IN: ["1008" "5"]
IN: ["55" "7"]
IN: ["1007" "GBPJPY"]
IN: ["1008" "3"]
IN: ["55" "8"]
IN: ["1007" "USDCAD"]
IN: ["1008" "5"]
IN: ["55" "9"]
IN: ["1007" "EURGBP"]
IN: ["1008" "5"]
IN: ["55" "10"]
IN: ["1007" "EURCHF"]
IN: ["1008" "5"]
IN: ["55" "11"]
IN: ["1007" "AUDJPY"]
IN: ["1008" "3"]
IN: ["55" "12"]
IN: ["1007" "NZDUSD"]
IN: ["1008" "5"]
IN: ["55" "13"]
IN: ["1007" "CHFJPY"]
IN: ["1008" "3"]
IN: ["55" "14"]
IN: ["1007" "EURAUD"]
IN: ["1008" "5"]
IN: ["55" "15"]
IN: ["1007" "CADJPY"]
IN: ["1008" "3"]
IN: ["55" "16"]
IN: ["1007" "GBPAUD"]
IN: ["1008" "5"]
IN: ["55" "17"]
IN: ["1007" "EURCAD"]
IN: ["1008" "5"]
IN: ["55" "18"]
IN: ["1007" "AUDCAD"]
IN: ["1008" "5"]
IN: ["55" "19"]
IN: ["1007" "GBPCAD"]
IN: ["1008" "5"]
IN: ["55" "20"]
IN: ["1007" "AUDNZD"]
IN: ["1008" "5"]
IN: ["55" "21"]
IN: ["1007" "NZDJPY"]
IN: ["1008" "3"]
IN: ["55" "22"]
IN: ["1007" "USDNOK"]
IN: ["1008" "4"]
IN: ["55" "23"]
IN: ["1007" "AUDCHF"]
IN: ["1008" "5"]
IN: ["55" "24"]
IN: ["1007" "USDMXN"]
IN: ["1008" "4"]
IN: ["55" "25"]
IN: ["1007" "GBPNZD"]
IN: ["1008" "5"]
IN: ["55" "26"]
IN: ["1007" "EURNZD"]
IN: ["1008" "5"]
IN: ["55" "27"]
IN: ["1007" "CADCHF"]
IN: ["1008" "5"]
IN: ["55" "28"]
IN: ["1007" "USDSGD"]
IN: ["1008" "5"]
IN: ["55" "29"]
IN: ["1007" "USDSEK"]
IN: ["1008" "4"]
IN: ["55" "30"]
IN: ["1007" "NZDCAD"]
IN: ["1008" "5"]
IN: ["55" "31"]
IN: ["1007" "EURSEK"]
IN: ["1008" "4"]
IN: ["55" "32"]
IN: ["1007" "GBPSGD"]
IN: ["1008" "4"]
IN: ["55" "33"]
IN: ["1007" "EURNOK"]
IN: ["1008" "4"]
IN: ["55" "34"]
IN: ["1007" "EURHUF"]
IN: ["1008" "2"]
IN: ["55" "35"]
IN: ["1007" "USDPLN"]
IN: ["1008" "4"]
IN: ["55" "36"]
IN: ["1007" "USDDKK"]
IN: ["1008" "4"]
IN: ["55" "37"]
IN: ["1007" "GBPNOK"]
IN: ["1008" "4"]
IN: ["55" "38"]
IN: ["1007" "AUDDKK"]
IN: ["1008" "4"]
IN: ["55" "39"]
IN: ["1007" "NZDCHF"]
IN: ["1008" "5"]
IN: ["55" "40"]
IN: ["1007" "GBPCHF"]
IN: ["1008" "5"]
IN: ["55" "41"]
IN: ["1007" "XAUUSD"]
IN: ["1008" "2"]
IN: ["55" "42"]
IN: ["1007" "XAGUSD"]
IN: ["1008" "3"]
IN: ["55" "43"]
IN: ["1007" "USDTRY"]
IN: ["1008" "5"]
IN: ["55" "44"]
IN: ["1007" "NGAS"]
IN: ["1008" "3"]
IN: ["55" "45"]
IN: ["1007" "USDZAR"]
IN: ["1008" "5"]
IN: ["55" "46"]
IN: ["1007" "BTC/USD"]
IN: ["1008" "2"]
IN: ["55" "47"]
IN: ["1007" "ETH/USD"]
IN: ["1008" "2"]
IN: ["55" "48"]
IN: ["1007" "LTC/USD"]
IN: ["1008" "2"]
IN: ["55" "49"]
IN: ["1007" "XBN/USD"]
IN: ["1008" "2"]
IN: ["55" "50"]
IN: ["1007" "XRP/USD"]
IN: ["1008" "5"]
IN: ["55" "51"]
IN: ["1007" "EUR/CHF"]
IN: ["1008" "5"]
IN: ["55" "52"]
IN: ["1007" "AUD/JPY"]
IN: ["1008" "3"]
IN: ["55" "53"]
IN: ["1007" "NZD/USD"]
IN: ["1008" "5"]
IN: ["55" "54"]
IN: ["1007" "CHF/JPY"]
IN: ["1008" "3"]
IN: ["55" "55"]
IN: ["1007" "EUR/AUD"]
IN: ["1008" "5"]
IN: ["55" "56"]
IN: ["1007" "CAD/JPY"]
IN: ["1008" "3"]
IN: ["55" "57"]
IN: ["1007" "GBP/AUD"]
IN: ["1008" "5"]
IN: ["55" "58"]
IN: ["1007" "EUR/CAD"]
IN: ["1008" "5"]
IN: ["55" "59"]
IN: ["1007" "GBP/CAD"]
IN: ["1008" "5"]
IN: ["55" "60"]
IN: ["1007" "AUD/NZD"]
IN: ["1008" "5"]
IN: ["55" "61"]
IN: ["1007" "NZD/JPY"]
IN: ["1008" "3"]
IN: ["55" "62"]
IN: ["1007" "AUD/USD"]
IN: ["1008" "5"]
IN: ["55" "63"]
IN: ["1007" "AUD/CHF"]
IN: ["1008" "5"]
IN: ["55" "64"]
IN: ["1007" "GBP/NZD"]
IN: ["1008" "5"]
IN: ["55" "65"]
IN: ["1007" "EUR/NZD"]
IN: ["1008" "5"]
IN: ["55" "66"]
IN: ["1007" "USD/SEK"]
IN: ["1008" "5"]
IN: ["55" "67"]
IN: ["1007" "NZD/CAD"]
IN: ["1008" "5"]
IN: ["55" "68"]
IN: ["1007" "GBP/NOK"]
IN: ["1008" "5"]
IN: ["55" "69"]
IN: ["1007" "AUD/DKK"]
IN: ["1008" "4"]
IN: ["55" "70"]
IN: ["1007" "NZD/CHF"]
IN: ["1008" "5"]
IN: ["55" "71"]
IN: ["1007" "GBP/CHF"]
IN: ["1008" "5"]
IN: ["55" "72"]
IN: ["1007" "XAU/USD"]
IN: ["1008" "2"]
IN: ["55" "73"]
IN: ["1007" "EUR/JPY"]
IN: ["1008" "3"]
IN: ["55" "74"]
IN: ["1007" "EUR/GBP"]
IN: ["1008" "5"]
IN: ["55" "75"]
IN: ["1007" "CAD/CHF"]
IN: ["1008" "5"]
IN: ["55" "76"]
IN: ["1007" "USD/CHF"]
IN: ["1008" "5"]
IN: ["55" "77"]
IN: ["1007" "AUD/CAD"]
IN: ["1008" "5"]
IN: ["55" "78"]
IN: ["1007" "USD/SGD"]
IN: ["1008" "5"]
IN: ["55" "79"]
IN: ["1007" "GBP/USD"]
IN: ["1008" "5"]
IN: ["55" "80"]
IN: ["1007" "EUR/SEK"]
IN: ["1008" "5"]
IN: ["55" "81"]
IN: ["1007" "EUR/NOK"]
IN: ["1008" "5"]
IN: ["55" "82"]
IN: ["1007" "EUR/HUF"]
IN: ["1008" "3"]
IN: ["55" "83"]
IN: ["1007" "USD/JPY"]
IN: ["1008" "3"]
IN: ["55" "84"]
IN: ["1007" "GBP/JPY"]
IN: ["1008" "3"]
IN: ["55" "85"]
IN: ["1007" "USD/PLN"]
IN: ["1008" "5"]
IN: ["55" "86"]
IN: ["1007" "USD/DKK"]
IN: ["1008" "5"]
IN: ["55" "87"]
IN: ["1007" "XAG/USD"]
IN: ["1008" "3"]
IN: ["55" "88"]
IN: ["1007" "GBP/SGD"]
IN: ["1008" "5"]
IN: ["55" "89"]
IN: ["1007" "EUR/USD"]
IN: ["1008" "5"]
IN: ["55" "90"]
IN: ["1007" "USD/TRY"]
IN: ["1008" "5"]
IN: ["55" "91"]
IN: ["1007" "USD/CAD"]
IN: ["1008" "5"]
IN: ["55" "92"]
IN: ["1007" "USD/NOK"]
IN: ["1008" "5"]
IN: ["55" "93"]
IN: ["1007" "USD/ZAR"]
IN: ["1008" "5"]
IN: ["55" "94"]
IN: ["1007" "USD/MXN"]
IN: ["1008" "4"]
IN: ["55" "95"]
IN: ["1007" "Australia 200"]
IN: ["1008" "2"]
IN: ["55" "96"]
IN: ["1007" "Europe 50"]
IN: ["1008" "1"]
IN: ["55" "97"]
IN: ["1007" "France 40"]
IN: ["1008" "1"]
IN: ["55" "98"]
IN: ["1007" "Germany 30 (Mini)"]
IN: ["1008" "1"]
IN: ["55" "99"]
IN: ["1007" "Hong Kong 50"]
IN: ["1008" "2"]
IN: ["55" "100"]
IN: ["1007" "Japan 225"]
IN: ["1008" "0"]
IN: ["55" "101"]
IN: ["1007" "Spain 35"]
IN: ["1008" "1"]
IN: ["55" "102"]
IN: ["1007" "UK 100"]
IN: ["1008" "1"]
IN: ["55" "103"]
IN: ["1007" "US SPX 500 (Mini)"]
IN: ["1008" "1"]
IN: ["55" "104"]
IN: ["1007" "US Tech 100 (Mini)"]
IN: ["1008" "1"]
IN: ["55" "105"]
IN: ["1007" "Wall Street 30 (Mini)"]
IN: ["1008" "0"]
IN: ["55" "106"]
IN: ["1007" "XTI/USD"]
IN: ["1008" "2"]
IN: ["55" "107"]
IN: ["1007" "XBR/USD"]
IN: ["1008" "3"]
IN: ["10" "000"]
OUT: 8=FIX.4.4|9=107|35=x|49=demo.tradeviewmarkets.3193335|56=cServer|34=9|50=QUOTE|57=QUOTE|52=20250226-22:27:29|320=125|559=0|10=126|
IN: ["8" "FIX.4.4"]
IN: ["9" "2932"]
IN: ["35" "y"]
IN: ["34" "9"]
IN: ["49" "cServer"]
IN: ["50" "QUOTE"]
IN: ["52" "20250226-22:27:29.240"]
IN: ["56" "demo.tradeviewmarkets.3193335"]
IN: ["57" "QUOTE"]
IN: ["320" "125"]
IN: ["322" "responce:125"]
IN: ["560" "0"]
IN: ["146" "107"]
IN: ["55" "1"]
IN: ["1007" "EURUSD"]
IN: ["1008" "5"]
IN: ["55" "2"]
IN: ["1007" "GBPUSD"]
IN: ["1008" "5"]
IN: ["55" "3"]
IN: ["1007" "EURJPY"]
IN: ["1008" "3"]
IN: ["55" "4"]
IN: ["1007" "USDJPY"]
IN: ["1008" "3"]
IN: ["55" "5"]
IN: ["1007" "AUDUSD"]
IN: ["1008" "5"]
IN: ["55" "6"]
IN: ["1007" "USDCHF"]
IN: ["1008" "5"]
IN: ["55" "7"]
IN: ["1007" "GBPJPY"]
IN: ["1008" "3"]
IN: ["55" "8"]
IN: ["1007" "USDCAD"]
IN: ["1008" "5"]
IN: ["55" "9"]
IN: ["1007" "EURGBP"]
IN: ["1008" "5"]
IN: ["55" "10"]
IN: ["1007" "EURCHF"]
IN: ["1008" "5"]
IN: ["55" "11"]
IN: ["1007" "AUDJPY"]
IN: ["1008" "3"]
IN: ["55" "12"]
IN: ["1007" "NZDUSD"]
IN: ["1008" "5"]
IN: ["55" "13"]
IN: ["1007" "CHFJPY"]
IN: ["1008" "3"]
IN: ["55" "14"]
IN: ["1007" "EURAUD"]
IN: ["1008" "5"]
IN: ["55" "15"]
IN: ["1007" "CADJPY"]
IN: ["1008" "3"]
IN: ["55" "16"]
IN: ["1007" "GBPAUD"]
IN: ["1008" "5"]
IN: ["55" "17"]
IN: ["1007" "EURCAD"]
IN: ["1008" "5"]
IN: ["55" "18"]
IN: ["1007" "AUDCAD"]
IN: ["1008" "5"]
IN: ["55" "19"]
IN: ["1007" "GBPCAD"]
IN: ["1008" "5"]
IN: ["55" "20"]
IN: ["1007" "AUDNZD"]
IN: ["1008" "5"]
IN: ["55" "21"]
IN: ["1007" "NZDJPY"]
IN: ["1008" "3"]
IN: ["55" "22"]
IN: ["1007" "USDNOK"]
IN: ["1008" "4"]
IN: ["55" "23"]
IN: ["1007" "AUDCHF"]
IN: ["1008" "5"]
IN: ["55" "24"]
IN: ["1007" "USDMXN"]
IN: ["1008" "4"]
IN: ["55" "25"]
IN: ["1007" "GBPNZD"]
IN: ["1008" "5"]
IN: ["55" "26"]
IN: ["1007" "EURNZD"]
IN: ["1008" "5"]
IN: ["55" "27"]
IN: ["1007" "CADCHF"]
IN: ["1008" "5"]
IN: ["55" "28"]
IN: ["1007" "USDSGD"]
IN: ["1008" "5"]
IN: ["55" "29"]
IN: ["1007" "USDSEK"]
IN: ["1008" "4"]
IN: ["55" "30"]
IN: ["1007" "NZDCAD"]
IN: ["1008" "5"]
IN: ["55" "31"]
IN: ["1007" "EURSEK"]
IN: ["1008" "4"]
IN: ["55" "32"]
IN: ["1007" "GBPSGD"]
IN: ["1008" "4"]
IN: ["55" "33"]
IN: ["1007" "EURNOK"]
IN: ["1008" "4"]
IN: ["55" "34"]
IN: ["1007" "EURHUF"]
IN: ["1008" "2"]
IN: ["55" "35"]
IN: ["1007" "USDPLN"]
IN: ["1008" "4"]
IN: ["55" "36"]
IN: ["1007" "USDDKK"]
IN: ["1008" "4"]
IN: ["55" "37"]
IN: ["1007" "GBPNOK"]
IN: ["1008" "4"]
IN: ["55" "38"]
IN: ["1007" "AUDDKK"]
IN: ["1008" "4"]
IN: ["55" "39"]
IN: ["1007" "NZDCHF"]
IN: ["1008" "5"]
IN: ["55" "40"]
IN: ["1007" "GBPCHF"]
IN: ["1008" "5"]
IN: ["55" "41"]
IN: ["1007" "XAUUSD"]
IN: ["1008" "2"]
IN: ["55" "42"]
IN: ["1007" "XAGUSD"]
IN: ["1008" "3"]
IN: ["55" "43"]
IN: ["1007" "USDTRY"]
IN: ["1008" "5"]
IN: ["55" "44"]
IN: ["1007" "NGAS"]
IN: ["1008" "3"]
IN: ["55" "45"]
IN: ["1007" "USDZAR"]
IN: ["1008" "5"]
IN: ["55" "46"]
IN: ["1007" "BTC/USD"]
IN: ["1008" "2"]
IN: ["55" "47"]
IN: ["1007" "ETH/USD"]
IN: ["1008" "2"]
IN: ["55" "48"]
IN: ["1007" "LTC/USD"]
IN: ["1008" "2"]
IN: ["55" "49"]
IN: ["1007" "XBN/USD"]
IN: ["1008" "2"]
IN: ["55" "50"]
IN: ["1007" "XRP/USD"]
IN: ["1008" "5"]
IN: ["55" "51"]
IN: ["1007" "EUR/CHF"]
IN: ["1008" "5"]
IN: ["55" "52"]
IN: ["1007" "AUD/JPY"]
IN: ["1008" "3"]
IN: ["55" "53"]
IN: ["1007" "NZD/USD"]
IN: ["1008" "5"]
IN: ["55" "54"]
IN: ["1007" "CHF/JPY"]
IN: ["1008" "3"]
IN: ["55" "55"]
IN: ["1007" "EUR/AUD"]
IN: ["1008" "5"]
IN: ["55" "56"]
IN: ["1007" "CAD/JPY"]
IN: ["1008" "3"]
IN: ["55" "57"]
IN: ["1007" "GBP/AUD"]
IN: ["1008" "5"]
IN: ["55" "58"]
IN: ["1007" "EUR/CAD"]
IN: ["1008" "5"]
IN: ["55" "59"]
IN: ["1007" "GBP/CAD"]
IN: ["1008" "5"]
IN: ["55" "60"]
IN: ["1007" "AUD/NZD"]
IN: ["1008" "5"]
IN: ["55" "61"]
IN: ["1007" "NZD/JPY"]
IN: ["1008" "3"]
IN: ["55" "62"]
IN: ["1007" "AUD/USD"]
IN: ["1008" "5"]
IN: ["55" "63"]
IN: ["1007" "AUD/CHF"]
IN: ["1008" "5"]
IN: ["55" "64"]
IN: ["1007" "GBP/NZD"]
IN: ["1008" "5"]
IN: ["55" "65"]
IN: ["1007" "EUR/NZD"]
IN: ["1008" "5"]
IN: ["55" "66"]
IN: ["1007" "USD/SEK"]
IN: ["1008" "5"]
IN: ["55" "67"]
IN: ["1007" "NZD/CAD"]
IN: ["1008" "5"]
IN: ["55" "68"]
IN: ["1007" "GBP/NOK"]
IN: ["1008" "5"]
IN: ["55" "69"]
IN: ["1007" "AUD/DKK"]
IN: ["1008" "4"]
IN: ["55" "70"]
IN: ["1007" "NZD/CHF"]
IN: ["1008" "5"]
IN: ["55" "71"]
IN: ["1007" "GBP/CHF"]
IN: ["1008" "5"]
IN: ["55" "72"]
IN: ["1007" "XAU/USD"]
IN: ["1008" "2"]
IN: ["55" "73"]
IN: ["1007" "EUR/JPY"]
IN: ["1008" "3"]
IN: ["55" "74"]
IN: ["1007" "EUR/GBP"]
IN: ["1008" "5"]
IN: ["55" "75"]
IN: ["1007" "CAD/CHF"]
IN: ["1008" "5"]
IN: ["55" "76"]
IN: ["1007" "USD/CHF"]
IN: ["1008" "5"]
IN: ["55" "77"]
IN: ["1007" "AUD/CAD"]
IN: ["1008" "5"]
IN: ["55" "78"]
IN: ["1007" "USD/SGD"]
IN: ["1008" "5"]
IN: ["55" "79"]
IN: ["1007" "GBP/USD"]
IN: ["1008" "5"]
IN: ["55" "80"]
IN: ["1007" "EUR/SEK"]
IN: ["1008" "5"]
IN: ["55" "81"]
IN: ["1007" "EUR/NOK"]
IN: ["1008" "5"]
IN: ["55" "82"]
IN: ["1007" "EUR/HUF"]
IN: ["1008" "3"]
IN: ["55" "83"]
IN: ["1007" "USD/JPY"]
IN: ["1008" "3"]
IN: ["55" "84"]
IN: ["1007" "GBP/JPY"]
IN: ["1008" "3"]
IN: ["55" "85"]
IN: ["1007" "USD/PLN"]
IN: ["1008" "5"]
IN: ["55" "86"]
IN: ["1007" "USD/DKK"]
IN: ["1008" "5"]
IN: ["55" "87"]
IN: ["1007" "XAG/USD"]
IN: ["1008" "3"]
IN: ["55" "88"]
IN: ["1007" "GBP/SGD"]
IN: ["1008" "5"]
IN: ["55" "89"]
IN: ["1007" "EUR/USD"]
IN: ["1008" "5"]
IN: ["55" "90"]
IN: ["1007" "USD/TRY"]
IN: ["1008" "5"]
IN: ["55" "91"]
IN: ["1007" "USD/CAD"]
IN: ["1008" "5"]
IN: ["55" "92"]
IN: ["1007" "USD/NOK"]
IN: ["1008" "5"]
IN: ["55" "93"]
IN: ["1007" "USD/ZAR"]
