
OUT: 8=FIX.4.4|9=153|35=A|49=cServer|56=demo.tradeviewmarkets.3193299|34=4|50=QUOTE|57=QUOTE|52=20250226-03:55:53.128|98=:none-other|108=60|141=Y|553=3193299|554=2025Florian|10=167|
IN: 8=FIX.4.4|9=165|35=5|34=1|49=demo.tradeviewmarkets.3193299|50=QUOTE|52=20250226-03:55:53.243|56=cServer|57=QUOTE|58=Invalid Logon message: Incorrect data format for value, field=98|10=038|